S0160000424C455F46575F557064617465332E737265634A
S3150800000000400220BD460008854000088B400008D5
S3150800001000000000000000000000000000000000D2
S3150800002000000000000000000000000091400008E9
S3150800003000000000000000009B400008A5400008E2
S315080000400D4700080D4700080D4700080D47000832
S315080000500D470008B54000080D4700080D47000881
S315080000600D4700080D4700080D4700080D47000812
S315080000700D4700080D4700080D4700080D47000802
S315080000800D4700080D4700080D4700080D470008F2
S315080000900D4700080D4700080D4700080D470008E2
S315080000A00D4700080D4700080D4700080D470008D2
S311080000B00D4700080D4700080D47000822
S315080000C010B5064C2378002B07D1054B002B02D020
S315080000D0044800E000BF0123237010BD480100203A
S315080000E00000000078A50008044B10B5002B03D0CB
S315080000F00349044800E000BF10BDC04600000000E8
S315080001004C01002078A50008F1B58CB01F001D4BE6
S31508000110002820D040683A2801D0581E30E00991BE
S315080001200892189E0998002802D1002A02D012E0E7
S31508000130002E10D0129A002A0DD01498159900286E
S3150800014001D1002907D1169C179D002C01D1002D3D
S3150800015001D1002E01D1180012E0139B0A97199FAE
S31508000160079706960A9F0597089FF619049603951A
S31508000170029401910090089909980C9C2468A0475C
S315080001800DB0F0BD03000100F1B58AB010001F00E4
S315080001901F4B0A9A002A20D052683A24E443A24206
S315080001A001D0581E32E00991169E002902D1002876
S315080001B002D012E0002E10D0109900290DD0129905
S315080001C0139A002901D1002A07D1149C159D002CE9
S315080001D001D1002D01D1002E01D1180016E0119B86
S315080001E00897179F07970696089E0596099E089FE3
S315080001F0C71BF61904960395029401920091109A6A
S315080002000899411A09980A9C2468A0470BB0F0BDC2
S3150800021003000100F2B582B0040017001E00216831
S315080002204968884780256D02A8423DD1089A310061
S31508000230200023689B689847A84235D10D9920006D
S31508000240226812699047A8422ED1390020002268F8
S3150800025052699047A84227D10C9E31002000226897
S3150800026092699047A8421FD10A9A099920002368E3
S31508000270DB689847A84217D10B99320020002368FB
S31508000280DB699847A8420FD10E9B029901A80090F6
S315080002903A0020002468246AA047A84204D10F998E
S315080002A0002901D0019A0A60FEBDF0B589B00400A4
S315080002B0169D07951598069014980590129804901F
S315080002C011980390109802900F9801900E9800903C
S315080002D02000FFF79FFF060080277F02BE420ED14F
S315080002E0139908AA200023685B6A98470600BE424D
S315080002F005D1002D03D028680899401828602000E9
S31508000300216809688847300009B0F0BDF8B588B09B
S3150800031005001700159E16980790069614980590DE
S315080003201298049011980390109802900F980190D3
S315080003300E9800902800FFF76DFF04008020400209
S3150800034084420DD11399002228002B689B6A98478E
S3150800035004000748844203D03900300009F05BF8EE
S315080003602800296809688847200009B0F0BD00BF41
S3150800037026C70100650A000864AD0008F0B51A4CE6
S31508000380A54406000C0017001D00184909A800F02E
S31508000390DEFA1749694409680891164969440968E3
S315080003A00791154969440968069198210901694424
S315080003B00968059111496944096804911049694415
S315080003C0096803910F49694409680291972109014F
S315080003D069440968019100953B0022003100FFF746
S315080003E095FF09498D44F0BDA4F6FFFF7403000884
S315080003F08C09000088090000840900007C090000B7
S3150800040078090000740900005C0900007D0B0008EB
S3150800041064AD0008F0B51A4CA54406000C00170098
S315080004201D00184909A800F092FA17496944096895
S315080004300891164969440968079115496944096884
S315080004400691982109016944096805911149694489
S315080004500968049110496944096803910F49694478
S315080004600968029197210901694409680191009573
S315080004703B0022003100FFF718FF09498D44F0BD03
S31508000480A4F6FFFF0C0400088C0900008809000088
S31508000490840900007C09000078090000740900003E
S315080004A05C090000F4B592B000220292039204920D
S315080004B0059206920792089209920A920B920C925A
S315080004C00D920E920F9210921192042202AC06001F
S315080004D00D0000923068000E01908020C0002F1891
S315080004E002AA01980007000E391802A800F0CAFEF1
S315080004F002AA01980F218843291802A800F0C2FE13
S3150800050030680002000E0190220010320007000E2B
S3150800051039182000103000F0B5FE2200103201987C
S315080005200F21884329182000103000F0ABFE3068F0
S315080005300004000E0190220020320007000E391830
S315080005402000203000F09EFE2200203201980F2164
S31508000550884329182000203000F094FE3068C0B285
S315080005600190220030320007000E39182000303082
S3150800057000F088FE2200303201980F21884329189E
S315080005802000303000F07EFE802040002D18361DF9
S315080005900098401E00909DD1129E314D119A1098D8
S315080005A0110A03060B4311930F99000A0B0603431E
S315080005B010930E98090A03060B430F93000A1106B7
S315080005C0C90D695A090441400E91220020322100C2
S315080005D030312000203000F055FE0D9A0C98110A93
S315080005E003060B430D930B99000A0B0603430C9362
S315080005F00A98090A03060B430B93000A1106C90D4C
S31508000600695A090441400A9122001032210020311A
S315080006102000103000F036FE09980899020A0B06E9
S3150800062013430993079A090A13060B430893069975
S31508000630120A0B0613430793090A0006C00D285A27
S3150800064000044840069002AA2100103102A800F0D2
S3150800065019FE310002A800F027FE13B0F0BD00BF56
S31508000660F4AA000810B58024640202688A4201D1FF
S31508000670002801D1E41C02E0024908F0CCFE200063
S3150800068010BD00BF3409000000B581B002688A4277
S3150800069001D1010001D1044804E0083100F05AFEF6
S315080006A08020400201B000BD03000100F0B589B00A
S315080006B004689C4201D1040002D168480690CAE049
S315080006C0083000F0EDFB069080214902884200D0F0
S315080006D0C1E002A800210022002300252EC002AA9C
S315080006E002A920000830A3681B6898470425DA2069
S315080006F04000211802A800F0D7FD9A2040002018D3
S31508000700290141186A01801800F0D7FD6D08F4D157
S3150800071002200194009001E0012817D900980001F1
S3150800072001990918A22252008E1801998D18009F66
S315080007307F1E103A8C182018079032002900079857
S3150800074000F0A0FD103510367F1EF6D10098400047
S3150800075000900928E0D3002020606060A060E06077
S3150800076010258020C0002118200000F0C3FD103499
S315080007706D1EF6D101988D21890045180320009039
S315080007800024FF20C0432E18F0680306010AB0684B
S3150800079000060843E860B1680A0A71680906114349
S315080007A0A9607268170A326812063A436A603668A0
S315080007B0360A2B4FDB0DFB5A1B0473401E002E60B6
S315080007C00306070A08063843E8600F0A1106394384
S315080007D0A960170A32063A436A60360A204FDB0DCB
S315080007E0FB5A1B0473401E002E600306070A080600
S315080007F03843E8600F0A11063943A960170A32061A
S315080008003A436A60360A164FDB0DFB5A1B047340DF
S315080008102B600606000A0F060743EF60080A110652
S315080008200143A960100A190601436960180A0C49B0
S31508000830F20D895A0904414029608020C000291810
S31508000840280000F057FD641C1035102C99D3009829
S31508000850401E009094D1069809B0F0BD030001002F
S31508000860F4AA000810B40C2A04D102689A4201D1ED
S31508000870020001D1164829E082235B00C2180B78D2
S315080008801B064C7824041C438B781B022343CC7824
S315080008901C4314600B791B064C7924041C438B7982
S315080008A01B022343CC791C4354600B7A1B064C7AF3
S315080008B024041C438B7A1B022343C97A194391608B
S315080008C0416801220A4342608020400210BC7047FA
S315080008D003000100002906D0112904D203689342B7
S315080008E001D1020001D1064870478A235B00C15036
S315080008F0416802220A43426080204002704700BFD6
S315080009000300010010B582B004689C4201D10400BE
S3150800091001D10A4810E003795B0701D508480BE0C6
S315080009209A235B00C318009313000A0001000831DC
S3150800093000F024FD8020400202B010BD0300010033
S315080009400400010002688A4200D00020704700B502
S3150800095081B00A00002801D0002A01D1002003E056
S31508000960516809681268904701B000BD00B581B0AA
S315080009700249FFF777FE01B000BD00BFFCAC0008D6
S3150800098000B581B00249FFF77FFE01B000BD00BF88
S31508000990FCAC000800B581B0024BFFF787FE01B03A
S315080009A000BD00BFFCAC000800B581B0024BFFF7E4
S315080009B059FF01B000BD00BFFCAC000800B581B00E
S315080009C0024AFFF787FF01B000BD00BFFCAC000874
S315080009D000B581B0024BFFF795FF01B000BD00BF1F
S315080009E0FCAC0008F0B585B007000E0014001D0029
S315080009F00B49FFF7A7FF002801D10A480EE09A2104
S31508000A00490043180A990391029501940096020039
S31508000A10083201000831380000F0F0FE05B0F0BDDC
S31508000A20FCAC00080300010070B582B006000C009B
S31508000A3015000A49FFF786FF002801D108480BE090
S31508000A409A214900431801950094020008320100D2
S31508000A500831300000F0F4FF02B070BDFCAC0008AD
S31508000A6003000100002807D0044A0260044A1268FD
S31508000A7098235B00C2508160704700BFFCAC000839
S31508000A80F8AC000800B581B00249FFF7EBFD01B0EC
S31508000A9000BD00BF28AD000800B581B00249FFF7C8
S31508000AA0F3FD01B000BD00BF28AD000800B581B058
S31508000AB0024BFFF7FBFD01B000BD00BF28AD0008E3
S31508000AC000B581B0024BFFF7CDFE01B000BD00BFF7
S31508000AD028AD000800B581B0024AFFF7FBFE01B059
S31508000AE000BD00BF28AD000800B581B0024BFFF776
S31508000AF009FF01B000BD00BF28AD0008F0B585B0FC
S31508000B0007000E0014001D000B49FFF71BFF002805
S31508000B1001D10A480EE09A21490043180A9903911F
S31508000B200295019400960200083201000831380047
S31508000B3000F0EAFC05B0F0BD28AD0008030001008E
S31508000B4070B582B006000C0015000A49FFF7FAFED8
S31508000B50002801D108480BE09A214900431801955D
S31508000B6000940200083201000831300000F0F2FD5E
S31508000B7002B070BD28AD000803000100002807D0A8
S31508000B80044A0260044A126898235B00C2508160D6
S31508000B90704700BF28AD0008F8AC000880B50028EB
S31508000BA009D00168002905D0044A914202D10121E1
S31508000BB0034A1170406801F0BBFE02BD00003748C9
S31508000BC064010020F4B48DB0020008005168CE0814
S31508000BD0F61C15000C3502682968514043686A6896
S31508000BE05A408468AB686340C068EC684440019624
S31508000BF0280059E0A84CBE00A6590827FE41102730
S31508000C009B00E358FB411827AD006559FD41890053
S31508000C1061584E4073405D400168694008230C9D49
S31508000C20AD006559DD4110230B9EB600A659DE417D
S31508000C300A9B9B00E358FB419200A25855406E4020
S31508000C40734042685A400825099B9B00E358EB41CC
S31508000C501025089EB600A659EE41079DAD006559B8
S31508000C60FD41069FBF00E7597B405E40754083689B
S31508000C706B400825059EB600A659EE410596102636
S31508000C80049DAD006559F5411826039FBF00E75935
S31508000C90F7410097029EB600A459059E6640754026
S31508000CA03E466E40C468744008267B4D17023F0EC8
S31508000CB0BF00ED59F54102951026774D1F043F0EEA
S31508000CC0BF00ED59F54100951826734D2706BF0D4F
S31508000CD0ED59F541704E0F0EBF00F759029E7E4042
S31508000CE0009F77407D4006696E40009608266A4D4B
S31508000CF01F023F0EBF00ED59F541674F2604360E19
S31508000D00B600BE591027FE410396634F0E06B60D70
S31508000D10BE591827FE4102965F4E170EBF00F659B8
S31508000D207540039E6E40029F774045697D405A4F45
S31508000D302602360EB600BE590827FE410496564FBF
S31508000D400E04360EB600BE591027FE410396524FC2
S31508000D501606B60DBE591827FE4102964E4E1F0EB0
S31508000D60BF00F659049F7740039E7E40029F774056
S31508000D7086697E40484F0902090E89007958082776
S31508000D80F941454F1204120E9200BA581027FA413B
S31508000D90414F1B069B0DFB581827FB413E4F240E5F
S31508000DA0A4003C5961404A405340C4695C40203025
S31508000DB00199491E0191210E02912904090E0491F7
S31508000DC000990902090E0591310E06910099090448
S31508000DD0090E08912102090E09912A0E2104090E0D
S31508000DE00B913102090E0C910099090E33041B0E62
S31508000DF02F023F0EF6B20396EDB20795009DEDB2AF
S31508000E000A95E5B2019C002C00D0F3E60D9C234E12
S31508000E10715C09068C46F15D090467463943F35C43
S31508000E201B020B43715D194303684B402360B15C99
S31508000E3009060C9AB25C12040A430B99715C090202
S31508000E4011430A9AB25C0A434168514061600699A7
S31508000E50715C0906099AB25C12040A430899715C26
S31508000E6009021143079AB25C0A4381685140A1609E
S31508000E700299715C0906059AB25C12040A43049940
S31508000E80715C09021143039AB25C0A43C068504078
S31508000E90E0600EB0F0BC7047E0AE0008E0B20008B3
S31508000EA0F7B58EB0DE49DF4B00221098102806D021
S31508000EB0182800D194E0202800D121E1B8E10BA838
S31508000EC0D94C60CC60C0D94800786C46207068461A
S31508000ED00078002801D1002401E004200424DD4D17
S31508000EE028580BAD2C590019DB4C04600568012401
S31508000EF08460D84840680290D6480068019003ACE0
S31508000F000F98807B029E6E400B9F774004257D409C
S31508000F10019F0C9E7E40FC277740ED1952266E40B5
S31508000F208019A07301250F98465D66556D1C0E2D18
S31508000F30FAD3BD4C0CADC0CCC0C5083C04256E46E2
S31508000F403678002E01D10B9201E004260B95C14F8D
S31508000F50BF59BC460CAF0B9EBE596746BE193360D7
S31508000F6033680127B7600678B446029E5E400C9B3C
S31508000F70734004265E40019F0D9B7B40FC275F4023
S31508000F80F6190B2373406646F3186E4633730BAB9C
S31508000F90C0CCC0C36B461B78002B01D004230422A7
S31508000FA0AC4CE3580BACA2589A181160116801238F
S31508000FB09360C07B029A4A400B9951404D40019973
S31508000FC00C9A4A40FC215140691885224A408018EB
S31508000FD003A9C8730E9C207AC00700D52AE127E129
S31508000FE00BA8914C60CC60C0904800786C46207085
S31508000FF068460078002801D1002401E00420042472
S31508001000944D28580BAD2C590419216020680121EC
S31508001010A1609049496802918E490968019103A91E
S315080010200F9CA47B029D45400B9E6E400420704099
S31508001030019D0C9E6E40FC2575404019852545404E
S315080010406019887301240F98055D0D55641C0E2CD4
S31508001050FAD3754C0BA960CC60C1083C694609787F
S31508001060002901D1002501E004250421794E75598E
S315080010700BAE71586D187849296029680126AE604B
S3150800108004250678B446029E4E400B997140042604
S315080010904E40019F0C997940FC274F40F619522182
S315080010A07140664671186E4631730BA9C0CCC0C133
S315080010B069460978002901D004210422654C615843
S315080010C00BACA25889180B600B6801228A6003A929
S315080010D0C27B029C5C400B9B63405D40019B0C9C61
S315080010E05C40FC236340EB180B245C401219CA735E
S315080010F01022835C8B54521C182A00D36AE7F8E73F
S315080011000BA8494C60CC60C0484800786C462070F3
S3150800111068460078002801D1002401E00420042450
S315080011204C4D28580BAD2C5900190360056801234E
S315080011308360484840680290464800680190042346
S3150800114003AC0F98C07F029E6E400B9F7740042524
S315080011507D40019F0C9E7E40FC277740ED190B26AB
S315080011606E408019E07700250F98465D66556D1C20
S31508001170102DFAD32C4C0BADC0CCC0C5083C6D461F
S315080011802D78002D01D1002601E004260425314FD3
S31508001190BE590BAF7D597619316031680125B560A6
S315080011A0467CB446029E4E400B99714004264E403A
S315080011B0019F0C997940FC274F40F619852171400B
S315080011C06646711803AE71740BA9C0CCC0C16946D6
S315080011D00978002901D0042104221E4C61580BAC61
S315080011E0A25889181C4A0A600C688D6003A9027CFB
S315080011F0029D65400B9C6C406340019C0C9D6540BC
S31508001200FC246C401B1952245C4012190A741222E1
S31508001210835C8B54521C1F2A00D3DBE6F8E700BF19
S315080012207D138F2EA40B0E917C12000864010020FA
S315080012300A480CE0109A200023685B6898471098C3
S315080012406060A06804210143A1608020400211B0BB
S31508001250F0BD00BF54AD000854228EF7030001000C
S31508001260802040027047802040027047004870473F
S3150800127002000100004870470200010004B00101A5
S315080012800017014510B503680C685C401460436894
S315080012904C685C40546083688C685C409460C068A5
S315080012A0C9684140D16010BD02680A6042684A6058
S315080012B082688A60C068C860704710B5C368DA0774
S315080012C0D20FE124240662435B088468E4071C43C2
S315080012D0CC6083685B084468E4071C438C604368F9
S315080012E05B080468E4071C434C60006840084240F9
S315080012F00A6010BD10B5C3681A071B09846824075D
S315080013001C43CC6083681B09446824071C438C6013
S3150800131043681B09046824071C434C6000680009DD
S31508001320034BD20E9A5A120442400A6010BD00BFFF
S31508001330341300080000201C403860248070A06C1C
S31508001340C048E05400E120FD40D960C58091A08DD9
S31508001350C0A9E0B530B5842252008A1800239360EC
S31508001360D36001248C6043608C204000081800215B
S31508001370002400253AC00220106030BDFBB588B0B5
S3150800138004001500002308468821490040180590E6
S3150800139023E0002118008A008218AA1813781E066E
S315080013A053781B043343967836021E43D278324369
S315080013B08B0001AEF6183260009FFB58534033602D
S315080013C0491C0429E7D30690009A109901A8059BA1
S315080013D09B691B689847069B103309988C2149001E
S315080013E0401800900A99180010308142D1D20A9804
S315080013F0834250D2606804210143616000260FE0F1
S3150800140069180A7816064A78120432438E78360224
S315080014101643C9783143016022684A400260079E34
S31508001420B00000990C1801A90818B1005918721CC7
S3150800143007920A9AD21A9708BE42E1D32B0006965B
S31508001440099D8C267600AD19009524680460002451
S315080014500BE007680D195E5DB4461826E500751B96
S315080014606646AE407E400660641C069DAD00551B70
S31508001470AC42EED3079801AB04E08100009A5258BB
S315080014805A50401C0428F8D3009A109901A8059BC5
S315080014909B691B689847059800680A99401805993A
S315080014A008600BB0F0BDF4B50C00069F079E4168B6
S315080014B010220A4342608420400025186869A968FA
S315080014C0C90041406961E869E968C9004140E961C4
S315080014D03A0019008C20400020182B6A1B68984790
S315080014E00120286032002100FC31009803681B683F
S315080014F0984700208100721813687958594011607E
S31508001500401C0428F6D3F1BDF1B592B00C001500C5
S315080015101E001022002104A808F0A4F912984068B9
S315080015201821014001D08A480FE10C940421014397
S315080015301298416000240C988421490040180390B1
S315080015400C98FC30019000950F961A9E4CE00025E9
S31508001550002118988A00A218835C1F06431C9B5C0E
S315080015601B043B43871CBF5C3F021F43C31C9A5C9A
S315080015703A4308AB8F00DA51491C0429EAD318907C
S3150800158004AA0199009803681B689847039800689D
S31508001590401C03990860A80004A909180B6808AA42
S315080015A012585A400A60AB00E318F71CFA540A6846
S315080015B0120AB71CFA540A68120C771CFA540A68FD
S315080015C0120EF2540A68029B1858504008606D1CA7
S315080015D0042DE0D30D94029A0F9904A8039B1B6A65
S315080015E01B6898470D9C10340C988C2149004018AC
S315080015F002901999200010308142A8D21998844285
S3150800160000D395E01298406808210143129841607A
S3150800161004AA0199009803681B689847002219983C
S31508001620001B0D90189831002BE09300E318C55C59
S315080016302E06451CED5C2D043543861CF65C3602E9
S315080016402E43C51CED5C354308AEF6190196356088
S3150800165004AEF61937687D403560CF1CFD543568F1
S315080016602D0A8F1CFD5435682D0C4F1CFD5435680A
S315080016702D0ECD543368009D2D685D40019B1D607D
S31508001680521C9700029BDB1900930D9B9B089A42FC
S31508001690CBD30B000E9208A9C91901910C998C227B
S315080016A052008918029100990968019A116004A9E3
S315080016B0C91910910E9989000C91611811910100B0
S315080016C01A0000231DE01820DC00001B6C46207061
S315080016D01098046868460078C4401198C5184E19D1
S315080016E001980768BC463778E0B278406F463F787D
S315080016F0B84067467840019F38603078604050555A
S315080017005B1C0D980C9C001B8342DCD30E98401C76
S3150800171008AB04E08100029A52585A50401C04282B
S31508001720F8D3029A0F9908A8039B1B6A1B68984767
S315080017301B980399C968199A8918039AD1600028D1
S3150800174001D0199901608020400213B0F0BD00BF96
S3150800175004000100F8B58AB006000C0015001F0049
S315080017601022002102A808F07DF8862040002058A3
S31508001770002801D0102801D91F483AE03B002A006A
S31508001780300002A9019106A900912100FFF78BFEFE
S3150800179000200026862149006718109D0CE0E918EC
S315080017A01368CB7013681B0A8B7013681B0C4B707D
S315080017B01268120E0A70761C02A9B2008A18B300C3
S315080017C0396889088E42EAD3290086256D0065198D
S315080017D007E014681826C700F61BF4401E188C5537
S315080017E0401C2C68E61AB042F3D311980460802096
S315080017F040020BB0F0BD00BF04000100F1B592B085
S315080018000C0015001E001022002103A808F02AF873
S31508001810129840681821014001D088480BE10B94C2
S31508001820042101431298416000240B988421490041
S31508001830401802900B98FC300C90019510961A9E51
S3150800184055E000250022189990002318C85C000668
S315080018504F1CFF5C3F040743881CC05C00023843EA
S31508001860CF1CFB5C0343900007AF3B50009F3F58DB
S315080018707B4003AF3B50521C042AE5D318910B98C2
S315080018808C214900401800900246109903A8029B33
S315080018901B6A1B68984703AA0C99019803681B687A
S315080018A0984702980068401C02990860A80003A996
S315080018B009180B6807AA12585A400A60AB00E318C1
S315080018C0F71CFA540A68120AB71CFA540A68120C6A
S315080018D0771CFA540A68120EF2540A68009B1858C4
S315080018E0504008606D1C042DE0D3009410340B980A
S315080018F08C21490040180090199920001030814227
S315080019009FD21998844200D388E01298406808212B
S3150800191001431298416003AA0C99019803681B6851
S31508001920984700221998001B0E9018992CE09000F1
S315080019302518485D00064F1C7F5D3F040743881C39
S31508001940405D00023843CF1C7F5D074307A8C018D7
S315080019500760019B1B685F40019B1F60F31C5F5576
S31508001960019B1B681B0AB71C7B55019B1B681B0C3C
S31508001970771C7B55019B1B681B0E735503680D9DD1
S315080019802D685D400560521C93000098C0180D90A4
S3150800199003A8C01801900E9880088242C7D30F92F8
S315080019A007A8C0180C900B988C225200801800903B
S315080019B00D9800680C9A106000250F9880000B900F
S315080019C020180D9013E00D9840190A181823EC00FA
S315080019D01B1B0C9C276814789C407C400C9F3C6021
S315080019E0019C2468DC401278624032546D1C0E98C3
S315080019F00B9A801A8542E6D30F98401C07AB04E081
S31508001A008100009A52585A50401C0428F8D3009A6C
S31508001A10109907A8029B1B6A1B6898471B9802998E
S31508001A20C968199A8918029AD160002801D01999AB
S31508001A3001608020400213B0F0BD00BF0400010021
S31508001A40F8B58CB006000C0015001F001022002106
S31508001A5004A807F007FF862040002058002801D078
S31508001A60102801D90F481BE03B002A00300004A9C2
S31508001A70019108A900912100FFF715FD8620400075
S31508001A80215813980390084802900848019008487E
S31508001A9000680090C81C830804AA129800F0EAF8A7
S31508001AA00DB0F0BD04000100936E010026C70100C9
S31508001AB074AD0008F8B507000C00130000250120D6
S31508001AC000903900220000240EE0009FBC464F5DBE
S31508001AD0565D7E40F7437F1CFE0F464067463E40F4
S31508001AE00096009EA4196D1C9D42EED32000F2BDFF
S31508001AF0F8B50124009403000D000021002A10E027
S31508001B0000989E18761E3678AF187F1E3F78774065
S31508001B10FE43761CF60F66400640009600980918A4
S31508001B20521EEDD10800F2BDF4B583B0002500239E
S31508001B300122029200900020039A1CE0009C860075
S31508001B40A41926783706667836043E43A7783F02F6
S31508001B503743E4783C4386008E596640029CF74337
S31508001B607F1C3743FF0F01267E4026400296029CC3
S31508001B70A4001B19401C9408A042DFD30098A400B7
S31508001B80141B1CE0029F0197161B7619865D0096AA
S31508001B909608B6008F59BC461827EE00BE1B674646
S31508001BA0F740009E7740FFB2FE43761CF70F0126EA
S31508001BB07E40019F3E400296029E9B196D1CA542DF
S31508001BC0E0D3180004B0F0BDF7B500220123019355
S31508001BD0029B0324A343029C1AE0019E00969E08DA
S31508001BE0B6008F59BC461827E61A761EF600BE1BA5
S31508001BF06746F740461E365D7E40F6B2F7437F1CC1
S31508001C00FE0F7540009E35400195019D5219641ED0
S31508001C100125A342E1D30B001100029A94080200A1
S31508001C20002C1DE0A0001618361F307807067078BD
S31508001C3000043843B7783F020743F0783843A600D4
S31508001C409E19361F366846400198F7437F1C37436E
S31508001C50FE0F6E4006400196019880000918641E22
S31508001C60E0D10800FEBD0000B51A0008F11A000808
S31508001C7001000000FDB582B00C000A9E0B9F0020F3
S31508001C80C0430090220003990298336898470500DC
S31508001C900D98002829D0220003990298736898475E
S31508001CA00099EA43521C2A43D30FDA43521C0A40CE
S31508001CB000920099C243521C0243D30FDA43521CC6
S31508001CC00A4000921F4A11006140414038004840CE
S31508001CD050400D9B186000984A40D3435B1C0B4349
S31508001CE0D90FCA43521C904300900498B168012941
S31508001CF003D160400099C24305E00099E21C9208AE
S31508001D0003005340DA43521C0243D00FC243521C0D
S31508001D10914300910C990C4844406C400300634081
S31508001D20009ADD436D1C1D43EB0FDD436D1CAA4372
S31508001D300092009A9143009A674078401040084301
S31508001D4005B0F0BD55555555AAAAAAAAFCB5130063
S31508001D50002600229C08414B019305000C350B0018
S31508001D60200029000EE0B4001C1925782F06657896
S31508001D702D043D43A7783F022F43E4783C43B50042
S31508001D804C51761C8642EED38300CB1800931B1F5A
S31508001D901D68334B0E682C02240E1C5D24062F0486
S31508001DA03F0EDF5D3F042743ECB21C5D24023C4333
S31508001DB02D0E5D5D254375402A4C9600A4596C404E
S31508001DC0009D2C60521C01240519AD000E1F765982
S31508001DD0A700CF5977404F51641C042CF4D304282C
S31508001DE004D006280CD0082814D034E00A2A06D2D3
S31508001DF0019980235B02994201D00099C4E7F3BD9B
S31508001E00072AFCD84D6A0B696B408B624E695E40A7
S31508001E10CE62EDE7072AF2D2CD6A0E692C0E1C5D5A
S31508001E2027062C02240E1C5D24043C432F043F0E77
S31508001E30DF5D3F022743EDB25B5D3B4373400B63B7
S31508001E4005239C000C19E56926686E4026625B1C12
S31508001E50072BCDD8F5E704490191CEE70400010028
S31508001E60E0B2000878AD0008010001000023C25C5A
S31508001E700133002AFBD1581E7047000003B471468F
S31508001E80490840004900095E49008E4403BC704772
S31508001E90002243088B4274D303098B425FD3030A9B
S31508001EA08B4244D3030B8B4228D3030C8B420DD3AE
S31508001EB0FF22090212BA030C8B4202D3121209023C
S31508001EC065D0030B8B4219D300E0090AC30B8B427A
S31508001ED001D3CB03C01A5241830B8B4201D38B0328
S31508001EE0C01A5241430B8B4201D34B03C01A5241CD
S31508001EF0030B8B4201D30B03C01A5241C30A8B4210
S31508001F0001D3CB02C01A5241830A8B4201D38B02FA
S31508001F10C01A5241430A8B4201D34B02C01A52419E
S31508001F20030A8B4201D30B02C01A5241CDD2C30910
S31508001F308B4201D3CB01C01A524183098B4201D38C
S31508001F408B01C01A524143098B4201D34B01C01A77
S31508001F50524103098B4201D30B01C01A5241C308EF
S31508001F608B4201D3CB00C01A524183088B4201D35E
S31508001F708B00C01A524143088B4201D34B00C01A4A
S31508001F805241411A00D20146524110467047FFE7B6
S31508001F9001B5002000F0F0F802BDC0460029F7D0D0
S31508001FA076E7704703460B437FD4002243088B42EB
S31508001FB074D303098B425FD3030A8B4244D3030BC2
S31508001FC08B4228D3030C8B420DD3FF22090212BA87
S31508001FD0030C8B4202D31212090265D0030B8B4203
S31508001FE019D300E0090AC30B8B4201D3CB03C01AED
S31508001FF05241830B8B4201D38B03C01A5241430BC8
S315080020008B4201D34B03C01A5241030B8B4201D3B7
S315080020100B03C01A5241C30A8B4201D3CB02C01A22
S315080020205241830A8B4201D38B02C01A5241430A9A
S315080020308B4201D34B02C01A5241030A8B4201D389
S315080020400B02C01A5241CDD2C3098B4201D3CB0130
S31508002050C01A524183098B4201D38B01C01A5241DF
S3150800206043098B4201D34B01C01A524103098B42E3
S3150800207001D30B01C01A5241C3088B4201D3CB00CE
S31508002080C01A524183088B4201D38B00C01A5241B1
S3150800209043088B4201D34B00C01A5241411A00D261
S315080020A001465241104670475DE0CA0F00D04942CA
S315080020B0031000D34042534000229C4603098B423A
S315080020C02DD3030A8B4212D3FC22890112BA030AC2
S315080020D08B420CD3890192118B4208D38901921144
S315080020E08B4204D389013AD0921100E08909C309C9
S315080020F08B4201D3CB01C01A524183098B4201D3CB
S315080021008B01C01A524143098B4201D34B01C01AB5
S31508002110524103098B4201D30B01C01A5241C3082D
S315080021208B4201D3CB00C01A524183088B4201D39C
S315080021308B00C01A5241D9D243088B4201D34B00B7
S31508002140C01A5241411A00D20146634652415B10F9
S31508002150104601D34042002B00D5494270476346DA
S315080021605B1000D3404201B5002000F005F802BD1F
S315080021700029F8D016E770477047C046002B11D1E2
S31508002180002A0FD1002900D1002802D00021C94316
S31508002190080007B4024802A14018029003BDC046D1
S315080021A0D9FFFFFF03B4684601B5029800F006F8A8
S315080021B0019B9E4602B00CBC7047C046F0B5574618
S315080021C04E464546DE46E0B504000D009246994661
S315080021D083B08B4230D82DD04946504600F0BAF825
S315080021E029000600200000F0B5F8331A9846203B6F
S315080021F09B4633D45A465346934042461F0053469D
S3150800220093401E00AF423AD8AF4200D178E05B4611
S31508002210A41BBD41002B00DA75E0002200230092C2
S31508002220019301235A469340019301234246934062
S31508002230009328E08242CFD900220023009201931E
S315080022400C9B002B01D01C605D600098019903B0BF
S31508002250F0BCBB46B246A946A046F0BD424620237E
S315080022609B1A5246DA40414613004A468A401700EE
S3150800227042461F43534693401E00AF42C4D900222C
S315080022800023009201934346002BD9D0FB0772081E
S315080022901A4346467B080EE0AB4201D1A2420CD84F
S315080022A0A41A9D41012024196D410021013E2418DC
S315080022B04D41002E06D0AB42EED9013E24196D41A0
S315080022C0002EF8D1009801995B4600196941002B48
S315080022D024DB2B005A464446D3402A00E2401C0021
S315080022E05B461500002B2ADB26009E40330026009D
S315080022F04746BE403200801A9941009001919FE7F7
S31508002300A342BCD883E74246202300219B1A002219
S31508002310009101920122DA40019286E74246202383
S315080023209B1A2A0046469A402300F3404446134324
S315080023302A00E2401C005B461500002BD4DA424610
S315080023402F002023260097409B1ADE403B0033438C
S31508002350CDE7C04610B5002903D100F007F82030B4
S3150800236002E0080000F002F810BDC0461C21012357
S315080023701B04984201D3000C10391B0A984201D35A
S31508002380000A08391B09984201D30009043902A238
S31508002390105C40187047C04604030202010101019F
S315080023A0000000000000000090B589B000AF78601A
S315080023B0274B5A6B264B01210A435A63244B5B6B06
S315080023C001221340BB60BB680C243B1901221A602A
S315080023D03B19882252035A603B1900229A603A191F
S315080023E0A023DB051100180002F09AFE21007B18D5
S315080023F0802252001A600C003B1901225A603B19D0
S3150800240000229A603B190022DA603A19A023DB05FC
S315080024101100180002F084FE21007B1802221A60BF
S315080024207B1801225A607B1800229A607B180022CA
S31508002430DA607A18A023DB051100180002F070FE96
S3150800244001F044FE03001800BD4609B090BDC04621
S315080024500010024080B500AFA023DB05012118005B
S3150800246002F0CAFFA023DB050221180002F0C4FF10
S3150800247080235A00A023DB051100180002F0BCFFD8
S3150800248000231800BD4680BD80B500AFA023DB053C
S3150800249001220221180003F0A4F880235900A02382
S315080024A0DB050022180003F09CF8052002F0E2F98B
S315080024B080235900A023DB050122180003F091F8B8
S315080024C0052002F0D7F900231800BD4680BD00009C
S315080024D0B0B588B000AF78600A00BB1C1A801D230F
S315080024E0FB1800221A701C23FB18FF221A701425E9
S315080024F07B19324A1168196012791A71A023DB0513
S3150800250000220221180003F06CF80C2439197B19F3
S315080025100522180001F00AFE21007B181B78022B01
S315080025203DD17B181B791B021AB27B18DB781BB2CC
S3150800253013431AB21E217B181A807B181B88002B9E
S315080025402DD07A18BB1C12881B889A4203D97B188F
S31508002550BA1C12881A801D23FB1800221A7015E06F
S315080025601B2439191C23FB180122180001F0DEFD73
S315080025701D217B181B787A68D3183A191278D2B2BB
S315080025801A707B181A787B1801321A701D23FB18EB
S315080025901B789BB21E22BA1812889A42E0D8A0234A
S315080025A0DB0501220221180003F01BF81D23FB1886
S315080025B01B781800BD4608B0B0BDC046A0A50008E7
S315080025C090B589B000AF78600A00BB1C1A8010234A
S315080025D0FB18274A1168196012791A7102F040F936
S315080025E00300BB610023FB61A023DB050022022157
S315080025F0180002F0F6FF082439191023FB180522E3
S31508002600180001F093FD2200BB181B78022B12D18B
S31508002610BB185B789BB2BA1C12889A4207D8BB1CB7
S315080026201A8814497B68180001F080FD06E0022329
S315080026305B42FB6102E001235B42FB61A023DB05F1
S3150800264001220221180002F0CCFF02F009F902006B
S31508002650BB69D31A0F2B03D903235B42FB6102E044
S31508002660FB69002BBEDBFB691800BD4609B090BDAF
S31508002670A8A500087401002080B500AFA023DB05DB
S315080026800121180002F090FF0300013B5A42534112
S31508002690DBB21800BD4680BD80B588B000AF3B1DD3
S315080026A0164A1A603B1D164A5A603B1D154A1A619E
S315080026B03B1D154ADA603B1D144A9A603B1D144AB5
S315080026C09A613B1D180006F0C3FBC023DA04114BC0
S315080026D01100180002F0D5FA0F4A0E4B0021180017
S315080026E002F09DFA00220021052002F093F9052048
S315080026F002F0A5F9C046BD4608B080BDA92300086A
S3150800270055240008C1250008D1240008892400089A
S315080027106D410008680100201D27000880B500AF3C
S3150800272004E0002006F012FD031E04D1FFF7A4FF03
S31508002730031EF6D100E0C046BD4680BDF0B589B09F
S3150800274002AF17257B1900221A70524B3B610826E7
S31508002750BB19514A1168196092889A804F4B00211B
S31508002760180006F029FB06F006FA642002F082F843
S315080027704B4B180007F060F94A4B1B689B6818001A
S3150800278006F028FF0F23FC18BB191A0006210020A3
S3150800279006F088F9030023700F23FB181B78002B1B
S315080027A006D0414B180007F047F97B1901221A7029
S315080027B00F257C1905F02AFF030023707B191B7867
S315080027C0002B07D0394B180007F036F91723FB18EA
S315080027D001221A700F257C19BA1DBB1C01933B1DDB
S315080027E00093130007220021012005F089FD03004C
S315080027F023707B191B78002B07D02D4B180007F088
S315080028001BF91723FB1801221A70BB1D1D883B1DD7
S315080028101E883B691800FFF729FB0300DAB20F236D
S31508002820FC183B690093130000223100280006F0CB
S3150800283095F8030023700F23FB181B78002B0AD08A
S3150800284017243B191A781B4B1100180007F0F4F8E7
S315080028503B1901221A700F257C1901F0BFF90300F4
S3150800286023707B191B78002B07D0134B180007F031
S31508002870E3F81723FB1801221A700A4B1B689B689A
S31508002880180006F0A7FE1723FB181B781800BD468C
S3150800289007B0F0BDB0A5000800000020313F0008D1
S315080028A0B8A500085C000020D8A50008F8A500080F
S315080028B01CA6000840A6000868A6000880B500AF58
S315080028C0064B1B78002B04D000F00AF8034B0022B5
S315080028D01A7006F00DFCC046BD4680BD4C000020AF
S315080028E080B58CB008AF3B1D104A03CA03C31278E3
S315080028F01A700021002006F064F9002306930023CD
S31508002900059300230493002303933B1D0293092395
S31508002910019300230093002300220021002005F0E4
S315080029205AFDC046BD4604B080BDC04680A6000814
S3150800293080B584B000AF78600C4B9A6A0B4B0C4993
S315080029400A409A62094B9A6B084B802149010A434F
S315080029509A63064B9A6B80235B011340FB60FB6806
S3150800296000231800BD4604B080BDC04600100240D2
S31508002970FFEFFFFF80B500AF0E4B0F4A1A600D4BF5
S3150800298000221A710B4B00225A710A4B00225A6117
S31508002990084B00229A61074B01221A62054B180060
S315080029A002F06AF8031E01D000F026FAC046BD46BA
S315080029B080BDC046740200200030024080B584B055
S315080029C000AF78607B681B680A4A93420DD10A4BB0
S315080029D09A6B094B802149010A439A63064B9A6B05
S315080029E080235B011340FB60FB68C046BD4604B00C
S315080029F080BDC0460030024000100240B0B584B029
S31508002A0000AF78600A00BB1C1A800E257C1902F0FC
S31508002A10E3F9030023707B191B78002B03D01F4BA7
S31508002A20180007F009F802F017FA0F23FB1800221E
S31508002A301A700D23FB18BA1C12881A701FE0184B5F
S31508002A4019680F243B191B78DB007A68D3181A68B3
S31508002A505B68012002F072F9031E0BD1104B1B684C
S31508002A6008331A000E4B1A603B191A783B190132C3
S31508002A701A7004E00B4B180006F0DEFF0BE00F237C
S31508002A80FA180D23FB1812781B789A42D7D302F04E
S31508002A900BFA02F0C5F9BD4604B0B0BD8CA6000815
S31508002AA0080000209CA60008B0B586B000AF172520
S31508002AB07C1902F091F9030023707B191B78002B0F
S31508002AC003D01B4B180006F0B7FF02F0C5F93B0010
S31508002AD0802212025A603B008022DA603B00002204
S31508002AE09A603B0002221A6017257C191023FA18EF
S31508002AF03B001100180002F063FA030023707B19EB
S31508002B001B78002B03D00B4B180006F095FF0A4BD9
S31508002B101B689B68180006F05DFD02F0C5F902F017
S31508002B207FF9064B064A1A60C046BD4606B0B0BDD8
S31508002B308CA60008A4A600085C0000200800002057
S31508002B400000040880B584B000AF0F4B1B68FB601B
S31508002B50FB68BB6002F0AEFD01F0FAFD0B4B0022EC
S31508002B601A600A4B00225A60084B00229A60084BEA
S31508002B701B687B607B6883F30888C046BB689847F8
S31508002B80C046BD4604B080BD0400040810E000E05D
S31508002B900000040890B58BB000AF14243B19180048
S31508002BA014231A00002106F05DFE3D4B5A6B3C4B80
S31508002BB004210A435A633A4B5B6B042213403B6178
S31508002BC03B69374B5A6B364B20210A435A63344BC1
S31508002BD05B6B20221340FB60FB68314B5A6B304B12
S31508002BE001210A435A632E4B5B6B01221340BB60DB
S31508002BF0BB682B4B5A6B2A4B02210A435A63284B54
S31508002C005B6B022213407B607B6881235900A023FB
S31508002C10DB050022180002F0E4FC3B198022920131
S31508002C201A603B1900225A603B1901229A603B1927
S31508002C301C4A1900100002F073FA3B1901221A60A7
S31508002C403B19882252035A603B1900229A603A19A6
S31508002C50A023DB051100180002F062FA21007B1898
S31508002C60812252001A607B1801225A607B180022C2
S31508002C709A607B180022DA607A18A023DB05110017
S31508002C80180002F04DFA00220021052001F0C2FECC
S31508002C90052001F0D4FEC046BD460BB090BDC04627
S31508002CA0001002400008005080B582B000AF78607E
S31508002CB001235B42391D0448012204F04BFC7B6862
S31508002CC01800BD4602B080BD7404002080B500AF70
S31508002CD001F01EFD00F032F8FFF75CFF01F040FC42
S31508002CE0FFF748FE01F0AAFBFFF728FD031E12D1E5
S31508002CF00D4B180004F00CF90C4B180006F09CFE5E
S31508002D000B4B1B689B68180006F064FC094B1800FF
S31508002D1006F092FE04E0084B180006F08DFEFEE76A
S31508002D20FFF7CCFDFCE7C04628040020ACA6000847
S31508002D305C00002000A70008D8A6000890B595B04A
S31508002D4000AF14243B1918003C231A00002106F092
S31508002D5089FD3B1D180010231A00002106F082FD8C
S31508002D6080239B00180002F059FC3B1902221A60C6
S31508002D703B1980225200DA6021007B1800221A6172
S31508002D807B1840225A617B1802221A627B1802229B
S31508002D905A627B1800229A627B180922DA627B182B
S31508002DA0802292021A637B18802292045A637B1847
S31508002DB08022D2059A637B18180002F0F7FC031EDE
S31508002DC001D000F019F83B1D07221A603B1D0222AC
S31508002DD05A603B1D00229A603B1D0022DA603B1DAB
S31508002DE00121180003F042F8031E01D000F004F890
S31508002DF0C046BD4615B090BD80B500AF72B6C04698
S31508002E00FEE70000F0B595B000AFF8630B003B2273
S31508002E10BA1813700023FB640CE0FA6CFB6B9B1862
S31508002E201B781A00C64B1100180006F005FEFB6C4D
S31508002E300133FB643B217B181A78FB6C934203DA57
S31508002E407B181B78142BE8D9BE4B180006F0F4FD46
S31508002E50BD4B1B78032B00D192E100DD9CE2012BD0
S31508002E6002D0022B6CD097E23B23FB181978FB6B38
S31508002E700022180000F0BAFA0300012B23D1FB6BDD
S31508002E8001331B789BB21B029AB2FB6B02331B7889
S31508002E909BB2D3189AB2AD4B1A80AC4B1B881A005A
S31508002EA0AB4B1100180006F0C7FDFFF7FDFD042126
S31508002EB0012000F027FBA44B02221A70A54B18002C
S31508002EC006F0BAFD70E23B23FB181978FB6B01226A
S31508002ED0180000F08BFA0300012B28D1FB6B013395
S31508002EE01B789BB21B029AB2FB6B02331B789BB210
S31508002EF0D3189AB2954B1A80944B1B881A00944B98
S31508002F001100180006F098FD00F010FC924B1B68A3
S31508002F105B6A9BB2180000F007FEFFF7C5FD0521A6
S31508002F20012000F0EFFA884B03221A703CE20421D4
S31508002F30002000F0E7FA894B180006F07DFD33E221
S31508002F403B23FB181978FB6B0222180000F04EFA97
S31508002F50031E00D1A6E0FB6B01331B789BB21B0254
S31508002F6099B2FB6B02331B789AB20820382683196C
S31508002F70DB198A181A807A4B1B888219D21912888B
S31508002F809A4200D07EE00323BB6472E0754B1B783F
S31508002F90002B2ED0744B1B88744ADB00D3181A6892
S31508002FA05B68B96CF86B4118097839630021796355
S31508002FB06C490978C90008002038002803DB3E6BF5
S31508002FC08640350008E02020401A3E6BC640300097
S31508002FD07E6B8E4035000543386B88400400624995
S31508002FE0098812196B416148C90041180A604B608B
S31508002FF02FE05D4B1B8801339AB25B4B1A80BB6C82
S31508003000FA6BD3181B78BB620023FB62554B1B78FF
S31508003010DB00554A128811001A00203A002A03DB01
S31508003020B86A904078620AE02022D21AB86AD0407C
S315080030300200F86A98407862786A10437862BA6A39
S315080030409A403A62494ACB00D318396A7A6A1960B3
S315080030505A60444B1B780133DAB2424B1A70414B23
S315080030601B7807221340DAB23E4B1A70BB6C013349
S31508003070BB643B23FB181B78013BBA6C9A4200DA07
S3150800308084E716E0082338229B18DB191988344B85
S315080030901B881A00364B180006F0CEFC354B00226A
S315080030A01A7006E0344B180006F0C6FC314B0022B5
S315080030B01A702B4B1B8801339AB2294B1A80284B5E
S315080030C01B880A211800FEF769FF0B009BB2002B2C
S315080030D006D0234B1A881D4B1B889A4200D060E104
S315080030E0244B1B780421180000F00CFA214B1B789E
S315080030F0002B06D11A4B1B880A3B9AB2184B1A802A
S3150800310008E0194B1B8801339AB2184B11001800B6
S31508003110FFF774FC124B1A880C4B1B889A4206D18F
S31508003120164B180006F088FC074B04221A700E4B43
S31508003130012252421A800F4B01221A7031E1C04611
S3150800314020A7000828A7000898020020A20300204C
S315080031502CA7000844A70008280400205CA700083C
S31508003160A4030020A00300200C000020A0020020D9
S3150800317090A700080E000020A8A70008C4A700080A
S315080031803B23FB181978FB6B0322180000F02EF975
S31508003190031E00D1B7E0FB6B1B781B029AB2F02323
S315080031A01B01134099B2FB6B01331B789AB20A24B0
S315080031B038256319DB198A181A80FB6B981CFA6B79
S315080031C00223122100F0C2FA7C4B1B886219D2191D
S315080031D012889A4200D086E002237B647AE0784B14
S315080031E01B78002B34D0774B1B88774ADB00D31823
S315080031F01A685B68796CF86B41180978B960002120
S31508003200F9606F490978C90008002038002803DBEF
S31508003210BC688440FC610CE02020401ABC68FD684C
S315080032202600C64030002C008C40FC61FC69044333
S31508003230FC61B8688840B86162490988BC69FD695B
S3150800324012196B416048C90041180A604B6031E0A9
S315080032505C4B1B8801339AB25A4B1A807B6CFA6B0B
S31508003260D3181B783B6000237B60554B1B78DB002B
S31508003270544A128811001A00203A002A03DB3868DB
S31508003280904078610CE02022D21A3C687D682000C4
S31508003290D040020028009840786178691043786128
S315080032A03A689A403A61484ACB00D31839697A692C
S315080032B019605A60424B1B780133DAB2404B1A70D8
S315080032C03F4B1B7807221340DAB23D4B1A707B6CD2
S315080032D001337B643B23FB181B78043B7A6C9A42C8
S315080032E000DA7CE716E00A2338229B18DB191988CE
S315080032F0324B1B881A00354B180006F09DFB344BE1
S3150800330000221A7006E0334B180006F095FB304B86
S3150800331000221A70294B1B8801339AB2274B1A8050
S31508003320264B1B880F2213409BB2002B05D0234B3C
S315080033301A88294B1B889A4235D1254B1B780521BB
S31508003340180000F0DFF8224B1B78002B06D11B4B28
S315080033501B88103B9AB2194B1A8008E0194B1B8838
S3150800336001339AB2184B11001800FFF747FB134BAD
S315080033701A88194B1B889A4206D1184B180006F072
S315080033805BFB174B04221A700E4B012252421A801D
S315080033900F4B01221A7006E0124B180006F04CFB80
S315080033A002E0C04600E0C0460F4B1B689B68180049
S315080033B006F010F9C046BD4615B0F0BDA4030020BE
S315080033C0A00300200C000020A002002090A70008FF
S315080033D00E000020A8A70008A2030020D8A700080E
S315080033E098020020F0A700085C00002090B585B080
S315080033F000AF786008001100FB1C021C1A70BB1C89
S315080034000A1C1A70FB1C1B78013B7A68D2180E231B
S31508003410FB1812781A700F23FB1800221A70BB1CAF
S315080034201B78032B4CD055DC022B35D052DC002BF5
S3150800343002D0012B18D04DE07B681B78BB2B03D13B
S31508003440FB1C1B78042B01D0002354E0FB1C1B78C3
S31508003450023BDAB20F23FC187B680121180000F042
S3150800346033F9030023703BE07B681B78BC2B03D140
S31508003470FB1C1B78042B01D000233CE0FB1C1B78AB
S31508003480023BDAB20F23FC187B680121180000F012
S315080034901BF90300237023E07B681B78BB2B01D044
S315080034A0002328E0FB1C1B78023BDAB20F23FC182A
S315080034B07B680321180000F007F9030023700FE06A
S315080034C07B681B781B09DBB20C2B01D0002312E0AA
S315080034D0012310E00A4B180006F0AEFA00230AE0B2
S315080034E00F23FA180E23FB1812781B789A4201D17B
S315080034F0012300E000231800BD4605B090BDC04674
S3150800350018A80008F0B591B002AF0200FB1D1A70AA
S31508003510BB1D0A1C1A70FB1D1B78012B04D1322314
S31508003520FB1800221A7003E03223FB1801221A70D6
S315080035303323FB1800221A70BB1D1B78042B02D0FC
S31508003540052B2DD0AEE033257B1905221A703223C0
S31508003550FB181A782C217B181A707B1800225A70CF
S31508003560544B1B881B0A9BB2DAB27B189A70514BD4
S315080035701B88DAB27B18DA700C007B18032202214A
S31508003580180000F0A1F803001A0021007B181A7130
S315080035907B191A787B181100180000F0ABFB85E040
S315080035A03323FB180A221A7018243B19180005231E
S315080035B01A00002106F056F93E4B1B881B0A9BB2DF
S315080035C0DAB23B191A703B4B1B88DAB23B195A70B0
S315080035D002237B631EE07B6B9C1E00F0B5FA03009A
S315080035E01A00354B1A557B6B023B334AD15C1823BC
S315080035F0FA187B6BD3180A1C1A707B6B023B2E4A8F
S31508003600D35C1A002D4B1100180006F015FA7B6BD7
S3150800361001337B637B6B042BDDDD294B180006F039
S315080036200BFA3226BA191823F8180C257B190193B8
S3150800363010243B1900930123052100F0A1F9BB19B9
S315080036401A7820217B181A7020003B181A787B18E4
S315080036505A703B185A787B189A703B189A787B18D8
S31508003660DA703B18DA787B181A713B181A797B18C6
S315080036705A717B191A787B189A717B195A787B18B4
S31508003680DA717B199A787B181A727B19DA787B18A3
S315080036905A723323FB181A787B181100180000F0A9
S315080036A029FB03E0074B180006F0C6F9BD460FB024
S315080036B0F0BDC046A4030020A803002034A80008D3
S315080036C028A7000838A8000880B584B000AF78603D
S315080036D008001100FB1C021C1A70BB1C0A1C1A707D
S315080036E00F23FB1800221A70FB1C1B78BB600CE02A
S315080036F0BB687A68D31819780F22BB18BA181278DB
S315080037008A181A70BB680133BB60BB1C1B78BA6881
S315080037109A42EDDD0F217B187A1812781A707B18F9
S315080037201B781800BD4604B080BD000080B500AF08
S315080037300020FDF733FA031E03D0034B180006F0EA
S3150800374007FAC046BD4680BD58A80008F0B5C6466B
S3150800375000B596B008AF78620800FA6119000B2325
S315080037601E0018229B18DB19021C1A700A22182040
S315080037701318DB190A1C1A706B46984633001B1877
S31508003780DB191B781A00013A7A63BB600022FA60DB
S31508003790B868F9680200520F0E00F6007E617E696D
S315080037A016437E610200D2003A613B6000227A60CD
S315080037B0386879680200520F0E00F50015430200BA
S315080037C0D4000733DB08DB006A46D31A9D4608ABEC
S315080037D000333B63614B1B781B09DBB20C211800D5
S315080037E0FEF7DCFB0B00DBB21A005D4B9B5C1A0094
S315080037F05A4B1B7819000F230B40D318594A13400C
S3150800380003D5013B584A134301331C00534B1B781D
S315080038101B09DBB20C211800FEF7C0FB0B00DBB25C
S315080038201A00E1B24E4B99544C4B5B781B09DBB23C
S315080038300C211800FEF7B2FB0B00DBB21A00484B4E
S315080038409B5C1A00454B5B7819000F230B40D31875
S31508003850444A134003D5013B434A134301331C0032
S315080038603E4B5B781B09DBB20C211800FEF796FB72
S315080038700B00DBB21A00E1B2394B9954374B9B78EF
S315080038801B09DBB20C211800FEF788FB0B00DBB224
S315080038901A00334B9B5C1A00304B9B7819000F2398
S315080038A00B40D3182F4A134003D5013B2E4A134326
S315080038B001331C00294B9B781B09DBB20C2118002D
S315080038C0FEF76CFB0B00DBB21A00E1B2244B9954ED
S315080038D0264B18680B2318255B19DB191C780A2355
S315080038E05B19DB191B78796A10225219D2190792CB
S315080038F03A6B06920593FB6904930C230393184BC2
S315080039000293202301931A4B009304232200FCF709
S315080039103BFC0300FB62FB6A164A934203D0164B34
S31508003920180006F089F80B2318229B18DB191B7858
S31508003930043B1A00BB6A9A4203D0104B180006F0E3
S315080039407BF8BA6A396B7B6A180005F082FFC546B0
S31508003950C046BD460EB080BCB846F0BDA8030020E0
S3150800396010000020FF00008000FFFFFFE4AA000807
S31508003970A0AD000826C7010068A8000884A80008AA
S31508003980F0B599B008AF78620800FA6119000B2300
S3150800399018229B18DB19021C1A700A221823D3183E
S315080039A0DB190A1C1A706B461E000B2318229B187B
S315080039B0DB191B7804335A1EBA631A001400002256
S315080039C01500200029000400620F0C00E4007C6149
S315080039D07C6914437C610100C90039611A003A60A8
S315080039E000227A60386879680400620F0C00E400E7
S315080039F0FC60FC681443FC600100CA00BA60073327
S31508003A00DB08DB006946C91A8D4608AB00337B63C1
S31508003A100B2318229B18DB191A780A2318215B181E
S31508003A20DB191B78D318102B05DD394B180006F067
S31508003A3003F8B54669E00B221823D318DB191B785F
S31508003A400F2B10D81823D318DB191B78FB6307E054
S31508003A50FB6B7A6AD31800221A70FB6B0133FB637F
S31508003A60FB6B0F2BF4DD2B4B18680B2318229B18C6
S31508003A70DB191C780A2318229B18DB191B78796A2C
S31508003A80142218255219D21907927A6B06920593B1
S31508003A90FB6904930C2303931F4B02932023019382
S31508003AA01E4B009304232200FCF72EFB03003B6306
S31508003AB03A6B80235B029A4203D0194B180005F033
S31508003AC0BBFF0B2318229B18DB191B7804331A003B
S31508003AD0FB6A9A4203D0134B180005F0ADFF0B247E
S31508003AE01823E318DB191A78796BBB6D180005F0F3
S31508003AF0B0FE1823E318DB191B787A6BD118FB6D17
S31508003B000422180005F0A5FEB546BD4611B0F0BD65
S31508003B108CA80008F0AA000810000020A0AD000834
S31508003B20B4A80008DCA8000880B582B000AF02007F
S31508003B30BB1D1A80034BBA1D12881A80C046BD46A3
S31508003B4002B080BDAC03002080B582B000AFFB1D7B
S31508003B5000221A70BB1D00221A7033E01E4B1B8808
S31508003B601A0001231A40FB1D1B789A401300D9B28C
S31508003B70BB1DBA1D12788A181A70174B1B885B086A
S31508003B809BB21AB2144B1B88DB0B99B2124B1B88DB
S31508003B905B0B9BB24B4099B20F4B1B881B099BB220
S31508003BA04B4099B20C4B1B884B409BB2DB031BB2B4
S31508003BB013431BB29AB2084B1A80FB1D1A78FB1DD9
S31508003BC001321A70FB1D1B78072BC7D9BB1D1B7842
S31508003BD01800BD4602B080BDAC030020B0B594B055
S31508003BE006AF24217B183A4A31CA31C312681A60D3
S31508003BF01423FB18374A31CA31C312681A603B1DB1
S31508003C00354A31CA31C312681A6037257C197918C2
S31508003C10324B009307230122022004F01EFD030005
S31508003C2023707B191B78002B06D02D4B180005F046
S31508003C3003FF7B191B7847E0284B188837257C1922
S31508003C401423FA18274B059301230493102303938F
S31508003C5001230293002301930C23009314230221CA
S31508003C6004F096FD030023707B191B78002B06D001
S31508003C701D4B180005F0E0FE7B191B7824E0174B56
S31508003C80188837257C193A1D184B05930123049388
S31508003C901023039300230293002301931023009318
S31508003CA01423022104F074FD030023707B191B788A
S31508003CB0002B06D00E4B180005F0BEFE7B191B78AC
S31508003CC002E03723FB181B781800BD460EB0B0BDBE
S31508003CD01C0000202C0000203C000020AE03002021
S31508003CE010A90008B003002038A90008B203002074
S31508003CF060A90008B0B586B002AF78600A00FB1C60
S31508003D001A701C4B180005F097FE0023FB600CE0A8
S31508003D10FB687A68D3181B781A00174B110018002D
S31508003D2005F08AFEFB680133FB60FB1C1B78FA680A
S31508003D309A42EDDB114B180005F07EFE104B1888F1
S31508003D40104B19880B257C19FB1C1A787B68009385
S31508003D501300002204F002FE030023707B191B786F
S31508003D60002B03D0084B180005F066FEC046BD467A
S31508003D7004B0B0BD88A9000894A900089CA9000849
S31508003D80AE030020B2030020A0A9000880B584B0C5
S31508003D9000AF78600A00BB1C1A80164B01221A6015
S31508003DA0154BBA1C12881A80144B01221A70144B30
S31508003DB0180005F041FE0523FB600CE0FB687A68F5
S31508003DC0D3181B781A000F4B1100180005F034FEA3
S31508003DD0FB68013BFB60FB68002BEFDA7B681B780E
S31508003DE01A00094B1100180005F026FEC046BD460C
S31508003DF004B080BDB4030020B80300209802002058
S31508003E00C8A90008E4A90008ECA9000880B500AF15
S31508003E10214B00221A60214B00221A70204B1800F1
S31508003E2005F00AFE1F4B1A881F4B1B889A420AD1B7
S31508003E301D4B1B88002B06D01C4B180005F0FCFDFB
S31508003E40FEF780FE1EE0174B1B881900164B1B88D1
S31508003E501A00174B180005F0EFFD124B00221A80C6
S31508003E60144B012252421A80134B180005F0E4FD48
S31508003E70FEF71AFE114B180005F0DEFD104B180070
S31508003E8005F0DAFD0F4B01221A700F4B00221A704B
S31508003E90C046BD4680BDC046B40300209802002037
S31508003EA0F4A90008A4030020A203002010AA000811
S31508003EB028AA00080C00002060AA000884AA0008A6
S31508003EC08CAA00084C000020BA03002080B582B0F6
S31508003ED000AF3A60BB1D021C1A807B1D0A1C1A70B3
S31508003EE0BB1D1A880F4B1B8801339A4207D17B1DCD
S31508003EF01A783B6811001800FEF784FF0DE0BB1D19
S31508003F001A88094B1B8802339A4206D13B681B78EC
S31508003F10012B02D1054B01221A70C046BD4602B0DC
S31508003F2080BDC046B0030020B2030020BA030020BB
S31508003F3080B58AB000AF78607B687B627B6A1B7845
S31508003F40042B63D17B6A01333B623B6A1B78FF2BE8
S31508003F501FD052DC052B02D03E2B03D04DE0FFF7D5
S31508003F6055FF5DE03B6A02333B613B691B78012BD9
S31508003F7055D13B690133FB60FB68581DFB685A78CD
S31508003F809B781B0213439BB21900FFF7FFFEC0463E
S31508003F9045E03B6A0233FB61FB691A785B781B02D2
S31508003FA013439BB2204A934203D0204A934211D02E
S31508003FB036E0FB6902337B617B699A78DB781B0202
S31508003FC0134398B27B6919797B6907331A00FFF79F
S31508003FD07DFF11E0164B180005F02EFDFB69023334
S31508003FE0BB61BB695A1DBB699B78023BDBB21900F2
S31508003FF01000FEF707FFC04612E03B6A1B781A005E
S315080040000C4B1100180005F017FD09E07B6A1B78B8
S315080040101A00094B1100180005F00EFD00E0C04615
S31508004020C046BD460AB080BD010C00000F0C00005A
S31508004030ACAA0008C4AA0008CCAA000880B582B0B9
S3150800404000AF0F4B1A6C0E4B01210A431A640C4B36
S315080040501B6C012213407B607B68094BDA6B084BAB
S31508004060802149050A43DA63054BDA6B80235B0531
S3150800407013403B603B68C046BD4602B080BDC046A3
S315080040800010024080B500AFFEE780B500AFFEE73E
S3150800409080B500AFC046BD4680BD80B500AFC046FE
S315080040A0BD4680BD80B500AF00F0C8FBC046BD4622
S315080040B080BD000080B500AF034B180000F0F4FD8A
S315080040C0C046BD4680BDC0466801002080B582B0A6
S315080040D000AF00237B60124B124A1A60124B1B6812
S315080040E0591C114A1160002B15D10D4B180002F00E
S315080040F035FD031E0FD10A4B180000F087F87B68C0
S31508004100002B08D1064B180000F038F8031E02D021
S3150800411008235B427B607B681800BD4602B080BD01
S31508004120BC030020003001402004002090B589B06F
S3150800413002AFF860B960BB1D1A8000237B61BB1D06
S315080041401C88BA68F968084880235B010093230035
S3150800415002F032FB031E02D006235B427B617B69B9
S315080041601800BD4607B090BDBC03002080B500AF5F
S3150800417000F076FB03001800BD4680BD90B585B0FB
S3150800418000AF78600F243B1900221A707B681E4A1C
S315080041901A607B68822252005A607B6800229A6005
S315080041A07B68E022D200DA607B6800221A617B68AD
S315080041B000225A617B68802292009A617B681822E5
S315080041C0DA617B6800221A627B6800225A627B6881
S315080041D000229A627B680722DA627B6800221A63E9
S315080041E07B6808225A637B68180002F025FA031ECA
S315080041F002D03B1901221A700F23FB181B781800EE
S31508004200BD4605B090BDC0460030014090B58BB0A4
S3150800421000AF7860364B1A6C354B802149010A434A
S315080042201A64334B1A6C80235B0113403B613B696C
S315080042302F4B5A6B2E4B01210A435A632C4B5B6B4F
S3150800424001221340FB60FB68294B5A6B284B02215D
S315080042500A435A63264B5B6B02221340BB60BB685A
S3150800426014243B1940221A603B1902225A603B1952
S3150800427000229A603B190022DA603B1900221A6173
S315080042803A19A023DB051100180000F049FF3B1975
S3150800429080221A603B1902225A603B1900229A6052
S315080042A03B190022DA603B1900221A613A19A02349
S315080042B0DB051100180000F033FF21007B180822E7
S315080042C01A607B1802225A607B1800229A607B18B3
S315080042D00022DA607B1800221A617B18054A190049
S315080042E0100000F01DFFC046BD460BB090BDC0468D
S315080042F0001002400004005080B586B000AFF86098
S31508004300B9607A6000237B610AE000E000BF010023
S31508004310BB685A1CBA60CAB21A707B6901337B61E2
S315080043207A697B689A42F0DB7B681800BD4606B05E
S3150800433080BD80B586B000AFF860B9607A600023AA
S315080043407B6109E0BB685A1CBA601B781800FEF747
S31508004350ABFC7B6901337B617A697B689A42F1DB46
S315080043607B681800BD4606B080BD80B582B000AF38
S31508004370786001235B421800BD4602B080BD80B557
S3150800438082B000AF786039603B68802292015A603B
S3150800439000231800BD4602B080BD80B582B000AFCC
S315080043A0786001231800BD4602B080BD80B584B090
S315080043B000AFF860B9607A6000231800BD4604B003
S315080043C080BD000080B586B000AF7860144A154BF2
S315080043D0D31A7B617B693B61134B1B68002B02D1A7
S315080043E0114B124A1A60104B1A687B68D3183A693F
S315080043F09A4207D205F01CF803000C221A60012322
S315080044005B4209E0084B1B68FB60074B1A687B6830
S31508004410D218054B1A60FB681800BD4606B080BD69
S315080044200040022000040000240400202808002080
S3150800443080B500AFC046BD4680BD000080B588B0D7
S3150800444000AF1023FB18180010231A00002105F0EE
S3150800445009FA3B1D18000C231A00002105F002FA80
S31508004460214B224A1A60204B00225A601E4B00221A
S315080044709A601D4B1E4ADA601B4B00221A611A4BC2
S3150800448000225A61184B00229A61174B180002F055
S31508004490E7FC031E01D0FEF7AFFC10217B18802233
S315080044A052011A607A18104B1100180002F08AFDA2
S315080044B0031E01D0FEF7A0FC3B1D00221A603B1D1F
S315080044C000225A603B1D00229A603A1D064B1100D5
S315080044D0180002F073FF031E01D0FEF78DFCC046DC
S315080044E0BD4608B080BDC04628040020002C014007
S315080044F0FFFF000090B597B000AF78600C243B1919
S3150800450018004C231A00002105F0ACF97B681B68DB
S31508004510114A93421CD13B19802292031A603B1917
S3150800452000229A633B19180001F04AFE031E01D0C7
S31508004530FEF762FC094B1A6C084B802109010A43F5
S315080045401A64064B1A6C80231B011340BB60BB68B8
S31508004550C046BD4617B090BD002C01400010024071
S3150800456080B500AF234B244A1A60224BE12252023F
S315080045705A60204B00229A601E4B0022DA601D4BBF
S3150800458000221A611B4B0C225A611A4B00229A61AF
S31508004590184B0022DA61174B00221A62154B0022CB
S315080045A05A62144B00229A62124B180002F07CFFE2
S315080045B0031E01D0FEF720FC0E4B0021180003F065
S315080045C0BFFD031E01D0FEF717FC0A4B0021180099
S315080045D003F0F6FD031E01D0FEF70EFC054B18008E
S315080045E003F074FD031E01D0FEF706FCC046BD4667
S315080045F080BDC046740400200044004090B59DB0BC
S3150800460000AF78605C23FB18180014231A000021F9
S3150800461005F028F910243B1918004C231A0000212C
S3150800462005F020F97B681B68224A93423ED13B1964
S3150800463002221A603B1900229A603B19180001F001
S31508004640BFFD031E01D0FEF7D7FB1B4BDA6B1A4BD7
S31508004650802189020A43DA63174BDA6B80239B02AF
S315080046601340FB60FB68144B5A6B134B01210A433A
S315080046705A63114B5B6B01221340BB60BB685C211C
S315080046807B180C221A607B1802225A607B180022BB
S315080046909A607B180022DA607B1801221A617A1860
S315080046A0A023DB051100180000F03AFDC046BD4600
S315080046B01DB090BD00440040001002400D488546DC
S315080046C0FFF7B6FE0C480D490D4A002302E0D45800
S315080046D0C4500433C4188C42F9D30A4A0A4C00233E
S315080046E001E013600432A242FBD305F08BF8FEF713
S315080046F0EDFAFEE7004002200000002048010020F5
S31508004700F0B300084801002024080020FEE7000056
S3150800471080B582B000AFFB1D00221A700B4B1A68D9
S315080047200A4B802149000A431A60002000F03CF831
S31508004730031E03D0FB1D01221A7001E0FFF77EFC61
S31508004740FB1D1B781800BD4602B080BD0020024044
S3150800475080B500AF104B01225242DA620E4B00229E
S31508004760DA620D4B012252421A630B4B00221A637E
S31508004770094B012252429A62074B00229A62064B63
S31508004780012252425A62044B00225A6200F006F88D
S3150800479000231800BD4680BD0010024080B500AF5A
S315080047A0C046BD4680BD000090B585B000AF7860B4
S315080047B00F23FB1800221A701D4B1B78002B2BD0D9
S315080047C01C4B1C681A4B1B781900FA239800FDF736
S315080047D05FFB030019002000FDF75AFB03001800D1
S315080047E000F03DF9031E12D17B68032B0AD87968BD
S315080047F001235B420022180000F00CF90E4B7A6880
S315080048001A600DE00F23FB1801221A7008E00F2327
S31508004810FB1801221A7003E00F23FB1801221A70F5
S315080048200F23FB181B781800BD4605B090BDC0467F
S3150800483058000020500000205400002080B500AF2A
S31508004840054B1B781A00054B1B68D218034B1A60D8
S31508004850C046BD4680BDC046580000200805002059
S3150800486080B500AF024B1B681800BD4680BDC04628
S315080048700805002080B584B000AF7860FFF7F0FF28
S315080048800300BB607B68FB60FB68013305D00A4BFD
S315080048901B781A00FB689B18FB60C046FFF7E0FF11
S315080048A00200BB68D31AFA689A42F7D8C046C046CF
S315080048B0BD4604B080BDC0465800002080B582B011
S315080048C000AF0200FB1D1A70FB1D1B787F2B09D851
S315080048D0FB1D1B781A001F231A40044B0121914027
S315080048E00A001A60C046BD4602B080BD00E100E07D
S315080048F090B583B000AF02003960FB1D1A70FB1D2E
S315080049001B787F2B28D82F4AFB1D1B785BB29B0888
S31508004910C0339B009B58FA1D1278110003220A40E7
S31508004920D200FF2191400A00D2431A4011003B6889
S315080049309B01FF221A40FB1D1B7818000323034026
S31508004940DB009A401F48FB1D1B785BB29B080A4395
S31508004950C0339B001A5031E01B4AFB1D1B78190017
S315080049600F230B40083B9B0806339B00D3180433E0
S315080049701B68FA1D1278110003220A40D200FF2193
S3150800498091400A00D2431A4011003B689B01FF225E
S315080049901A40FB1D1B78180003230340DB009A40CE
S315080049A00948FB1D1B781C000F232340083B9B0866
S315080049B00A4306339B00C31804331A60C046BD4633
S315080049C003B090BD00E100E000ED00E080B582B0E4
S315080049D000AF78607B685A1E80235B049A4201D335
S315080049E0012310E00A4B7A68013A5A6001235B42B8
S315080049F003211800FFF77CFF054B00229A60044B41
S31508004A0007221A6000231800BD4602B080BDC046C2
S31508004A1010E000E080B584B000AFB9607A600F217D
S31508004A207B18021C1A70BA687B181B785BB21100D7
S31508004A301800FFF75DFFC046BD4604B080BD80B5CF
S31508004A4082B000AF0200FB1D1A70FB1D1B785BB21B
S31508004A501800FFF733FFC046BD4602B080BD80B5DB
S31508004A6082B000AF78607B681800FFF7AFFF0300DD
S31508004A701800BD4602B080BD80B582B000AF786030
S31508004A807B68002B01D1012356E07B685B7FDBB294
S31508004A90002B06D17B6800221A777B681800FDF781
S31508004AA08DFF7B6802225A777B681B79002B0CD115
S31508004AB07B681B68224A5A617B681B689A687B6810
S31508004AC01B6818218A439A600BE07B6899687B68A3
S31508004AD0DA687B68180000F035F8031E01D0012358
S31508004AE02AE07B685B79002B05D17B681B6801226D
S31508004AF052421A6104E07B681B687A6812691A6177
S31508004B007B681B689B686022934319007B685A6917
S31508004B107B681B680A439A607B681B689B688022CF
S31508004B20934319007B689A697B681B680A439A60F5
S31508004B307B6801225A7700231800BD4602B080BD63
S31508004B40B71DC10480B586B000AFF860B9607A6059
S31508004B501723FB1800221A701F233B61C0463B69C6
S31508004B605A1E3A61002B08D03B691F221340BA68C7
S31508004B70DA40130001221340F1D07B68182B0FD0BE
S31508004B807B68182B24D87B68102B11D07B68102BD8
S31508004B901ED87B68002B20D07B68082B10D017E026
S31508004BA03B69062B1BD91723FB1801221A7016E03E
S31508004BB03B69072B15D91723FB1801221A7010E039
S31508004BC03B690F2B0FD91723FB1801221A700AE02D
S31508004BD01723FB1801221A7006E0C04604E0C046F7
S31508004BE002E0C04600E0C0461723FB181B78002BDE
S31508004BF00ED1FB681B68BA685A61FB681B689B681C
S31508004C00182293431900FB681B687A680A439A605E
S31508004C101723FB181B781800BD4606B080BD80B563
S31508004C2086B000AFF8607A600B203B180A1C1A7031
S31508004C301723FB1800221A703B181B78022B10D07A
S31508004C4013DC002B02D0012B07D00EE0FB687A6834
S31508004C505A60FB687A689A600CE0FB687A685A6062
S31508004C6008E0FB687A689A6004E01723FB180122BB
S31508004C701A70C0461723FB181B781800BD4606B0E5
S31508004C8080BD80B582B000AF786039607B68002B44
S31508004C9001D1012303E07B683A681A6000231800F3
S31508004CA0BD4602B080BD000080B586B000AF786012
S31508004CB07B681B681B0C012213407B617B681B68A1
S31508004CC01F22134001229A4013003B617B695B0156
S31508004CD0184A94466344FB60FB681A683B691340AC
S31508004CE0BB60BB68002B09D0FB683A691A607B6811
S31508004CF05B68002B02D07B685B6898477B695B0121
S31508004D000D4A94466344FB60FB681A683B69134086
S31508004D10BB60BB68002B09D0FB683A691A607B68E0
S31508004D209B68002B02D07B689B689847C046BD46A7
S31508004D3006B080BD0C18024010180240B0B586B007
S31508004D4000AFF860B9603A607B60214B1B78012B95
S31508004D5001D1022338E01E4B01221A701C4B002297
S31508004D605A6017257C19FA239B00180000F0BAF838
S31508004D70030023707B191B78002B1FD1FB68012BBE
S31508004D8006D13A687B68B968080000F0F9F805E0CA
S31508004D903A68BB681100180005F0FAFB1723FC18DF
S31508004DA0FA239B00180000F09DF803002370094BB6
S31508004DB05A69FB68D943074B0A405A61044B0022DB
S31508004DC01A701723FB181B781800BD4606B0B0BD2D
S31508004DD00C0500200020024080B582B000AFFB1D04
S31508004DE000221A700B4B5B69002B0CDA094B0A4A36
S31508004DF09A60084B094A9A60064B5B69002B02DAEF
S31508004E00FB1D01221A70FB1D1B781800BD4602B057
S31508004E1080BDC0460020024023016745AB89EFCD1F
S31508004E2080B582B000AFFB1D01221A70094B5A6982
S31508004E30084B802109060A435A61064B5B69002B19
S31508004E4002DAFB1D00221A70FB1D1B781800BD46EE
S31508004E5002B080BD0020024080B582B000AFFB1DC5
S31508004E6001221A700D4B5A698023DB0513400ED0B8
S31508004E700A4B0B4ADA60094B0A4ADA60074B5A6949
S31508004E808023DB05134002D1FB1D00221A70FB1D8F
S31508004E901B781800BD4602B080BDC04600200240FF
S31508004EA03B2A19087F6E5D4C80B582B000AFFB1DAA
S31508004EB001221A700A4B5A69094B8021C9050A430F
S31508004EC05A61074B5A698023DB05134002D0FB1D44
S31508004ED000221A70FB1D1B781800BD4602B080BD63
S31508004EE00020024080B584B000AF7860FFF7B8FCB8
S31508004EF002007B689B18FB60C0239B02BB6007E02F
S31508004F00FFF7AEFC0200FB68934201D803232AE0B0
S31508004F10174B1B69BA681340F2D1154B1B69154A22
S31508004F201340BB60124B144A1A61BB68002B04D0AD
S31508004F30124BBA685A60012315E0FFF791FC02008C
S31508004F407B689B18FB6007E0FFF78AFC0200FB689A
S31508004F50934201D8032306E0054B1A698023DB0236
S31508004F601340F1D100231800BD4604B080BDC046E9
S31508004F7000200240FAC30000FBC308000C0500200D
S31508004F80B0B584B000AFF8603A607B600B4B5A69E5
S31508004F900A4B01210A435A61FB683A681A60BFF353
S31508004FA06F8FC0467B681C0000231D00FB68043316
S31508004FB022001A60C046BD4604B0B0BD00200240BB
S31508004FC0B0B584B000AF78603960334B1B78012BDD
S31508004FD001D102235CE0304B01221A702E4B0022CD
S31508004FE05A600F257C19FA239B001800FFF77AFFF1
S31508004FF0030023702C003B191B78002B42D17B68D9
S315080050001B68042B0DD17B685B68180000F048F814
S315080050103C19FA239B001800FFF764FF030023706E
S3150800502030E03B68012252421A607B689B68BB608D
S315080050301AE07B685B68BA681100180000F044F84B
S315080050400F257C19FA239B001800FFF74BFF030076
S3150800505023707B191B78002B03D03B68BA681A604B
S315080050600AE0BB680133BB607B689A687B68DB68CB
S31508005070D318BA689A42DCD3084B5A69074B0221FF
S315080050808A435A61044B00221A700F23FB181B78B7
S315080050901800BD4604B0B0BD0C0500200020024033
S315080050A080B582B000AF7860064B5A697B681A43B0
S315080050B0044B802149020A435A61C046BD4602B0E4
S315080050C080BDC0460020024080B584B000AF78603D
S315080050D039600F4B5B690F4A1340FB607B68042BF2
S315080050E005D0FB68802292011343FB6003E0FB684E
S315080050F0094A1340FB603B68DA00FB681A43044B15
S3150800510006490A435A61C046BD4604B080BDC0463A
S315080051100020024007E0FFFFFFDFFFFF020001005B
S3150800512080B586B000AF7860396000237B614DE1B9
S315080051303B681B6801217A6991400A001340FB60AD
S31508005140FB68002B00D13EE13B685B6803221340F5
S31508005150012B05D03B685B6803221340022B30D134
S315080051607B689B683B617B695B0003229A4013005E
S31508005170DA433B6913403B613B68DA687B695B004D
S315080051809A4013003A6913433B617B683A699A600F
S315080051907B685B683B6101227B699A401300DA43AE
S315080051A03B6913403B613B685B681B0901221A4057
S315080051B07B699A4013003A6913433B617B683A69F5
S315080051C05A603B685B6803221340032B17D07B6841
S315080051D0DB683B617B695B0003229A401300DA4374
S315080051E03B6913403B613B689A687B695B009A4060
S315080051F013003A6913433B617B683A69DA603B6896
S315080052005B6803221340022B23D17B69DA087B688B
S3150800521008329200D3583B617B69072213409B00F2
S315080052200F229A401300DA433B6913403B613B68FF
S315080052301A697B6907210B409B009A4013003A695B
S3150800524013433B617B69DA087B6808329200396947
S31508005250D1507B681B683B617B695B0003229A40DF
S315080052601300DA433B6913403B613B685B680322E2
S315080052701A407B695B009A4013003A6913433B6105
S315080052807B683A691A603B685A68C0239B021340D8
S3150800529000D198E0534A7B699B0818339B009B58BA
S315080052A03B617B6903221340DB000F229A401300FF
S315080052B0DA433B6913403B617A68A023DB059A42CF
S315080052C019D07B68484A934213D07B68474A934271
S315080052D00DD07B68464A934207D07B68454A93427D
S315080052E001D1042308E0052306E0032304E0022392
S315080052F002E0012300E000237A6903210A40D20074
S3150800530093403A6913433B6136497B699B081833D6
S315080053109B003A695A50334B1B683B61FB68DA437A
S315080053203B6913403B613B685A6880235B03134023
S3150800533003D03A69FB6813433B612A4B3A691A6002
S31508005340284B5B683B61FB68DA433B6913403B616A
S315080053503B685A6880239B03134003D03A69FB686D
S3150800536013433B611F4B3A695A601E4A8423D3583C
S315080053703B61FB68DA433B6913403B613B685A680B
S3150800538080239B02134003D03A69FB6813433B61B1
S31508005390144984223B698B50124A8023D3583B61B7
S315080053A0FB68DA433B6913403B613B685A688023D4
S315080053B05B02134003D03A69FB6813433B61094912
S315080053C080223B698B507B6901337B613B681A6895
S315080053D07B69DA40131E00D0AAE6C046C046BD4621
S315080053E006B080BD001802400004005000080050B6
S315080053F0000C00500010005080B586B000AF7860F1
S31508005400396000237B61BAE001227B699A403B68D8
S3150800541013403B613B69002B00D1ADE05D4A7B69D7
S315080054209B0818339B009B58FB607B69032213403B
S31508005430DB000F229A40FB681340FB607A68A023C2
S31508005440DB059A4219D07B68534A934213D07B688E
S31508005450524A93420DD07B68514A934207D07B68E3
S31508005460504A934201D1042308E0052306E00323AA
S3150800547004E0022302E0012300E000237A69032105
S315080054800A40D2009340FA689A4236D1414A8023AC
S31508005490D3583A69D2433F49134080228B503D4A3C
S315080054A08423D3583A69D2433A49134084228B500D
S315080054B0384B5A683B69D943364B0A405A60354BD4
S315080054C01A683B69D943334B0A401A607B69032241
S315080054D01340DB000F229A401300FB602D4A7B69BC
S315080054E09B0818339B009A58FB68D94329487B695F
S315080054F09B080A4018339B001A507B681A687B6918
