S0150000424C455F46575F5570646174652E737265637E
S3150800000000400220451E000831190008371900086B
S3150800001000000000000000000000000000000000D2
S315080000200000000000000000000000003D19000864
S3150800003000000000000000004719000851190008D8
S31508000040951E0008951E0008951E0008951E0008B6
S31508000050951E000861190008951E0008951E0008DF
S31508000060951E0008951E0008951E0008951E000896
S31508000070951E0008951E0008951E0008951E000886
S31508000080951E0008951E0008951E0008951E000876
S31508000090951E0008951E0008951E0008951E000866
S315080000A0951E0008951E0008951E0008951E000856
S311080000B0951E0008951E0008951E000805
S315080000C010B5064C2378002B07D1054B002B02D020
S315080000D0044800E000BF0123237010BD4001002042
S315080000E00000000000740008044B10B5002B03D074
S315080000F00349044800E000BF10BDC04600000000E8
S3150800010044010020007400080023C25C0133002A61
S31508000110FBD1581E7047000003B4714649084000D9
S315080001204900095E49008E4403BC70470022430813
S315080001308B4274D303098B425FD3030A8B4244D3A1
S31508000140030B8B4228D3030C8B420DD3FF220902E3
S3150800015012BA030C8B4202D31212090265D0030BA2
S315080001608B4219D300E0090AC30B8B4201D3CB0398
S31508000170C01A5241830B8B4201D38B03C01A5241DA
S31508000180430B8B4201D34B03C01A5241030B8B42DC
S3150800019001D30B03C01A5241C30A8B4201D3CB02C7
S315080001A0C01A5241830A8B4201D38B02C01A5241AC
S315080001B0430A8B4201D34B02C01A5241030A8B42AF
S315080001C001D30B02C01A5241CDD2C3098B4201D3C7
S315080001D0CB01C01A524183098B4201D38B01C01A45
S315080001E0524143098B4201D34B01C01A52410309BC
S315080001F08B4201D30B01C01A5241C3088B4201D36B
S31508000200CB00C01A524183088B4201D38B00C01A17
S31508000210524143088B4201D34B00C01A5241411A3E
S3150800022000D20146524110467047FFE701B500204B
S3150800023000F0F0F802BDC0460029F7D076E770470F
S3150800024003460B437FD4002243088B4274D3030929
S315080002508B425FD3030A8B4244D3030B8B4228D3CA
S31508000260030C8B420DD3FF22090212BA030C8B42F0
S3150800027002D31212090265D0030B8B4219D300E090
S31508000280090AC30B8B4201D3CB03C01A5241830B15
S315080002908B4201D38B03C01A5241430B8B4201D3C5
S315080002A04B03C01A5241030B8B4201D30B03C01AEE
S315080002B05241C30A8B4201D3CB02C01A5241830A68
S315080002C08B4201D38B02C01A5241430A8B4201D397
S315080002D04B02C01A5241030A8B4201D30B02C01AC1
S315080002E05241CDD2C3098B4201D3CB01C01A524128
S315080002F083098B4201D38B01C01A524143098B42B1
S3150800030001D34B01C01A524103098B4201D30B0199
S31508000310C01A5241C3088B4201D3CB00C01A5241BE
S3150800032083088B4201D38B00C01A524143088B4283
S3150800033001D34B00C01A5241411A00D2014652411C
S31508000340104670475DE0CA0F00D04942031000D33B
S315080003504042534000229C4603098B422DD3030A90
S315080003608B4212D3FC22890112BA030A8B420CD3A0
S31508000370890192118B4208D3890192118B4204D3C9
S3150800038089013AD0921100E08909C3098B4201D349
S31508000390CB01C01A524183098B4201D38B01C01A83
S315080003A0524143098B4201D34B01C01A52410309FA
S315080003B08B4201D30B01C01A5241C3088B4201D3A9
S315080003C0CB00C01A524183088B4201D38B00C01A56
S315080003D05241D9D243088B4201D34B00C01A52412D
S315080003E0411A00D20146634652415B10104601D3BA
S315080003F04042002B00D54942704763465B1000D344
S31508000400404201B5002000F005F802BD0029F8D0E9
S3150800041016E770477047C046002B11D1002A0FD146
S31508000420002900D1002802D00021C943080007B4DA
S31508000430024802A14018029003BDC046D9FFFFFF3B
S3150800044003B4684601B5029800F006F8019B9E467B
S3150800045002B00CBC7047C046F0B557464E464546F6
S31508000460DE46E0B504000D009246994683B08B42FD
S3150800047030D82DD04946504600F0BAF82900060073
S31508000480200000F0B5F8331A9846203B9B4633D433
S315080004905A465346934042461F00534693401E0011
S315080004A0AF423AD8AF4200D178E05B46A41BBD41C3
S315080004B0002B00DA75E00022002300920193012345
S315080004C05A4693400193012342469340009328E0FD
S315080004D08242CFD900220023009201930C9B002B65
S315080004E001D01C605D600098019903B0F0BCBB4662
S315080004F0B246A946A046F0BD424620239B1A52465C
S31508000500DA40414613004A468A40170042461F43CE
S31508000510534693401E00AF42C4D9002200230092DE
S3150800052001934346002BD9D0FB0772081A43464667
S315080005307B080EE0AB4201D1A2420CD8A41A9D4119
S31508000540012024196D410021013E24184D41002E39
S3150800055006D0AB42EED9013E24196D41002EF8D1E2
S31508000560009801995B4600196941002B24DB2B0092
S315080005705A464446D3402A00E2401C005B46150012
S31508000580002B2ADB26009E40330026004746BE4045
S315080005903200801A9941009001919FE7A342BCD886
S315080005A083E74246202300219B1A002200910192EC
S315080005B00122DA40019286E7424620239B1A2A0046
S315080005C046469A402300F340444613432A00E24035
S315080005D01C005B461500002BD4DA42462F00202368
S315080005E0260097409B1ADE403B003343CDE7C046C2
S315080005F010B5002903D100F007F8203002E0080002
S3150800060000F002F810BDC0461C2101231B049842C5
S3150800061001D3000C10391B0A984201D3000A083985
S315080006201B09984201D30009043902A2105C40183C
S315080006307047C046040302020101010100000000E0
S315080006400000000090B589B000AF7860274B5A6B60
S31508000650264B01210A435A63244B5B6B0122134044
S31508000660BB60BB680C243B1901221A603B1988221F
S3150800067052035A603B1900229A603A19A023DB05F7
S315080006801100180002F03CF821007B188022520065
S315080006901A600C003B1901225A603B1900229A6025
S315080006A03B190022DA603A19A023DB05110018006D
S315080006B002F026F821007B1802221A607B18012214
S315080006C05A607B1800229A607B180022DA607A1832
S315080006D0A023DB051100180002F012F801F04CF90E
S315080006E003001800BD4609B090BDC0460010024080
S315080006F080B500AFA023DB050121180002F06CF9D4
S31508000700A023DB050221180002F066F980235A00AF
S31508000710A023DB051100180002F05EF9002318007B
S31508000720BD4680BD80B500AFA023DB0501220221AE
S31508000730180002F046FA80235900A023DB050022A0
S31508000740180002F03EFA052001F058FC80235900F3
S31508000750A023DB050122180002F033FA052001F078
S315080007604DFC00231800BD4680BD0000B0B588B01A
S3150800077000AF78600A00BB1C1A801D23FB180022F4
S315080007801A701C23FB18FF221A7014257B19324A8B
S315080007901168196012791A71A023DB05002202215B
S315080007A0180002F00EFA0C2439197B1905221800D4
S315080007B001F012F921007B181B78022B3DD17B181A
S315080007C01B791B021AB27B18DB781BB213431AB2C9
S315080007D01E217B181A807B181B88002B2DD07A18AF
S315080007E0BB1C12881B889A4203D97B18BA1C12882C
S315080007F01A801D23FB1800221A7015E01B243919CC
S315080008001C23FB180122180001F0E6F81D217B18AD
S315080008101B787A68D3183A191278D2B21A707B18EC
S315080008201A787B1801321A701D23FB181B789BB2A5
S315080008301E22BA1812889A42E0D8A023DB050122A4
S315080008400221180002F0BDF91D23FB181B781800B9
S31508000850BD4608B0B0BDC0462874000890B589B03A
S3150800086000AF78600A00BB1C1A801023FB18274AC1
S315080008701168196012791A7101F0B6FB0300BB61A1
S315080008800023FB61A023DB0500220221180002F0E9
S3150800089098F9082439191023FB180522180001F0C5
S315080008A09BF82200BB181B78022B12D1BB185B7869
S315080008B09BB2BA1C12889A4207D8BB1C1A881449DC
S315080008C07B68180001F088F806E002235B42FB61AA
S315080008D002E001235B42FB61A023DB050122022122
S315080008E0180002F06EF901F07FFB0200BB69D31A0B
S315080008F00F2B03D903235B42FB6102E0FB69002B44
S31508000900BEDBFB691800BD4609B090BD307400080F
S315080009106801002080B500AFA023DB05012118007F
S3150800092002F032F90300013B5A425341DBB2180088
S31508000930BD4680BD80B588B000AF3B1D164A1A601B
S315080009403B1D164A5A603B1D154A1A613B1D154A3E
S31508000950DA603B1D144A9A603B1D144A9A613B1D96
S31508000960180005F041FAC023DA04114B11001800EB
S3150800097001F078FC0F4A0E4B0021180001F040FCEC
S3150800098000220021052001F009FC052001F01BFCCE
S31508000990C046BD4608B080BD45060008F1060008F9
S315080009A05D0800086D07000825070008191A0008E1
S315080009B05C010020B909000880B500AF04E00020FA
S315080009C005F090FB031E04D1FFF7A4FF031EF6D122
S315080009D000E0C046BD4680BDF0B589B002AF172518
S315080009E07B1900221A70524B3B610826BB19514AE3
S315080009F01168196092889A804F4B0021180005F0FB
S31508000A00A7F905F084F8642001F0F8FA4B4B1800B2
S31508000A1005F0D2FF4A4B1B689B68180005F09AFD43
S31508000A200F23FC18BB191A000621002005F006F84A
S31508000A30030023700F23FB181B78002B06D0414BAD
S31508000A40180005F0B9FF7B1901221A700F257C19C9
S31508000A5004F0A8FD030023707B191B78002B07D030
S31508000A60394B180005F0A8FF1723FB1801221A7046
S31508000A700F257C19BA1DBB1C01933B1D009313005F
S31508000A8007220021012004F007FC030023707B19CC
S31508000A901B78002B07D02D4B180005F08DFF172368
S31508000AA0FB1801221A70BB1D1D883B1D1E883B6959
S31508000AB01800FFF729FB0300DAB20F23FC183B697D
S31508000AC00093130000223100280004F013FF0300EE
S31508000AD023700F23FB181B78002B0AD017243B1909
S31508000AE01A781B4B1100180005F066FF3B19012206
S31508000AF01A700F257C1900F0CFFC030023707B19B0
S31508000B001B78002B07D0134B180005F055FF172349
S31508000B10FB1801221A700A4B1B689B68180005F01F
S31508000B2019FD1723FB181B781800BD4607B0F0BD42
S31508000B303874000800000020DD170008407400081B
S31508000B40500000206074000880740008A47400082F
S31508000B50C8740008F074000880B500AF064B1B780F
S31508000B60002B04D000F00AF8034B00221A7005F097
S31508000B708BFAC046BD4680BD4000002080B58CB0CB
S31508000B8008AF3B1D104A03CA03C312781A70002126
S31508000B90002004F0E2FF00230693002305930023B8
S31508000BA00493002303933B1D029309230193002317
S31508000BB00093002300220021002004F0D8FBC04641
S31508000BC0BD4604B080BDC04608750008F0B58DB0B6
S31508000BD000AFF8610A001B23FB181A700023FB629A
S31508000BE00CE0FB6AFA69D3181B781A00B44B11009B
S31508000BF0180005F0E1FEFB6A0133FB621B217B1836
S31508000C001B78FA6A9A4203DA7B181B78142BE8D900
S31508000C10AC4B180005F0D0FEAB4B1B78012B02D06D
S31508000C20022B36D03BE11B23FB181978FB690022FF
S31508000C30180000F067F90300012B21D1FB69013385
S31508000C401B789BB21B029AB2FB6902331B789BB2D4
S31508000C50D3189AB29D4B1A809C4B1B881A009C4B42
S31508000C601100180005F0A8FE0221012000F0A8F9DD
S31508000C70954B02221A70974B180005F09DFE14E159
S31508000C800221002000F09CF9934B180005F094FE11
S31508000C900BE11B23FB181978FB690122180000F0E9
S31508000CA031F9031E00D1AEE0FB6901331B789BB214
S31508000CB01B0299B2FB6902331B789AB20E201826DA
S31508000CC08319DB198A181A80844B1B888219D21952
S31508000CD012889A4200D086E00323BB627AE0BB6A98
S31508000CE0033B1A000723134039D07D4B1B887D4AE6
S31508000CF0DB00D31818685968BB6AFA69D3181B78D9
S31508000D003B6100237B61BB6A033B774A134004D5EA
S31508000D10013B0822524213430133DB001A00203AF2
S31508000D20002A03DB3E699640350008E02022D21AE5
S31508000D303E69D64032007E699E40350015433A69C1
S31508000D409A401400664B1B881E0002000B001219FD
S31508000D506B416448F10041180A604B6037E0604B0C
S31508000D601B8801339AB25E4B1A80BB6AFA69D3189C
S31508000D701B78BB600023FB60BB6A033B5A4A1340DF
S31508000D8004D5013B0822524213430133DB00544A7F
S31508000D90128811001A00203A002A03DBB86890402E
S31508000DA078600AE02022D21AB868D0400200F868B3
S31508000DB098407860786810437860BA689A403A60D4
S31508000DC0484ACB00D31839687A6819605A60BB6AF2
S31508000DD00133BB621B23FB181B78013BBA6A9A4294
S31508000DE000DA7CE716E00E2318229B18DB1919880F
S31508000DF03A4B1B881A003D4B180005F0DDFD3C4BAD
S31508000E0000221A7006E03B4B180005F0D5FD384B5A
S31508000E1000221A70314B1B8801339AB22F4B1A8065
S31508000E202E4B1B880A211800FFF706FA0B009BB207
S31508000E30002B05D0294B1A88244B1B889A4233D19C
S31508000E402B4B1B780221180000F0BAF8284B1B78A8
S31508000E50002B06D1214B1B880A3B9AB21F4B1A80DE
S31508000E6008E01F4B1B8801339AB21E4B110018006D
S31508000E7000F02EF9194B1A88144B1B889A4206D192
S31508000E801D4B180005F098FD0F4B03221A70144BE2
S31508000E90012252421A80164B01221A7004E0174B9F
S31508000EA0180005F089FD00E0C046154B1B689B68D5
S31508000EB0180005F04FFBC046BD460DB0F0BDC04654
S31508000EC0147500081C7500086702002068070020D2
S31508000ED02075000838750008507500086A07002054
S31508000EE006000020680200200700008084750008BC
S31508000EF0080000209C750008B8750008C875000829
S31508000F005000002090B585B000AF78600800110049
S31508000F10FB1C021C1A70BB1C0A1C1A70FB1C1B78D3
S31508000F20013B7A68D2180E23FB1812781A700F2321
S31508000F30FB1800221A70BB1C1B78002B02D0012B51
S31508000F4018D025E07B681B78BB2B03D1FB1C1B78CC
S31508000F50042B01D000232CE0FB1C1B78023BDAB2E1
S31508000F600F23FC187B680121180000F07FF80300A6
S31508000F70237013E0FB1C1B78023BDAB20F23FC1824
S31508000F807B680321180000F071F80300237005E060
S31508000F900A4B180005F010FD00230AE00F23FA1883
S31508000FA00E23FB1812781B789A4201D1012300E020
S31508000FB000231800BD4605B090BDC046F075000870
S31508000FC0B0B584B000AF0200FB1D1A70BB1D0A1C29
S31508000FD01A70FB1D1B78012B04D10F23FB18002266
S31508000FE01A7003E00F23FB1801221A700E257B19CD
S31508000FF000221A70BB1D1B78022B2BD17B190522E8
S315080010001A7008217B180F22BA1812781A707B18E2
S3150800101000225A70134B1B881B0A9BB2DAB27B1844
S315080010209A70104B1B88DAB27B18DA700C007B18A2
S3150800103003220221180000F019F803001A00210003
S315080010407B181A717B191A787B181100180000F0A2
S31508001050B1FA03E0044B180005F0AEFCBD4604B037
S31508001060B0BDC0466A0700200C76000880B584B07B
S3150800107000AF786008001100FB1C021C1A70BB1C2C
S315080010800A1C1A700F23FB1800221A70FB1C1B7807
S31508001090BB600CE0BB687A68D31819780F22BB18B6
S315080010A0BA1812788A181A70BB680133BB60BB1C61
S315080010B01B78BA689A42EDDD0F217B187A181278E8
S315080010C01A707B181B781800BD4604B080BD000056
S315080010D0B0B584B000AF78600A00BB1C1A800E2534
S315080010E07C1901F069F9030023707B191B78002B22
S315080010F003D01F4B180005F05FFC01F09DF90F2384
S31508001100FB1800221A700D23FB18BA1C12881A70D5
S315080011101FE0184B19680F243B191B78DB007A6807
S31508001120D3181A685B68012001F0F8F8031E0BD182
S31508001130104B1B6808331A000E4B1A603B191A78B5
S315080011403B1901321A7004E00B4B180005F034FC09
S315080011500BE00F23FA180D23FB1812781B789A4216
S31508001160D7D301F091F901F04BF9BD4604B0B0BDF3
S315080011702C7600080C0000203C760008B0B586B036
S3150800118000AF17257C1901F017F9030023707B19A6
S315080011901B78002B03D01B4B180005F00DFC01F043
S315080011A04BF93B00802212025A603B008022DA602B
S315080011B03B0000229A603B0002221A6017257C1920
S315080011C01023FA183B001100180001F0E9F9030092
S315080011D023707B191B78002B03D00B4B180005F0E6
S315080011E0EBFB0A4B1B689B68180005F0B3F901F086
S315080011F04BF901F005F9064B064A1A60C046BD468A
S3150800120006B0B0BD2C7600084476000850000020D1
S315080012100C0000200000040880B584B000AF0F4B16
S315080012201B68FB60FB68BB6001F034FD00F054FEF0
S315080012300B4B00221A600A4B00225A60084B002208
S315080012409A60084B1B687B607B6883F30888C046F6
S31508001250BB689847C046BD4604B080BD0400040874
S3150800126010E000E00000040890B58BB000AF14242D
S315080012703B19180014231A00002105F0B3FA3D4B58
S315080012805A6B3C4B04210A435A633A4B5B6B042264
S3150800129013403B613B69374B5A6B364B20210A4357
S315080012A05A63344B5B6B20221340FB60FB68314B5F
S315080012B05A6B304B01210A435A632E4B5B6B012252
S315080012C01340BB60BB682B4B5A6B2A4B02210A435F
S315080012D05A63284B5B6B022213407B607B68812331
S315080012E05900A023DB050022180001F06AFC3B190F
S315080012F0802292011A603B1900225A603B1901228A
S315080013009A603B191C4A1900100001F0F9F93B19BB
S3150800131001221A603B19882252035A603B1900229F
S315080013209A603A19A023DB051100180001F0E8F9C4
S3150800133021007B18912252001A607B1801225A60FC
S315080013407B1800229A607B180022DA607A18A0239C
S31508001350DB051100180001F0D3F900220021052051
S3150800136000F01CFF052000F02EFFC046BD460BB05E
S3150800137090BDC046001002400008005080B582B0FB
S3150800138000AF786001235B42391D0448012203F04F
S31508001390ADF87B681800BD4602B080BDE80700209E
S315080013A080B500AF00F078FD00F028F8FFF75CFF85
S315080013B000F09AFCFFF710FB031E0ED10B4B18002A
S315080013C005F0FAFA0A4B1B689B68180005F0C2F884
S315080013D0084B180005F0F0FA04E0074B180005F072
S315080013E0EBFAFEE7FFF7B8FBFCE7C0464C760008C9
S315080013F050000020A07600087876000890B595B0D1
S3150800140000AF14243B1918003C231A00002105F0EC
S31508001410E9F93B1D180010231A00002105F0E2F92E
S3150800142080239B00180001F0E9FB3B1902221A6091
S315080014303B1980225200DA603B1900221A613B19D7
S3150800144040225A613B1900221A623B19180001F022
S315080014509DFC031E01D000F019F83B1D07221A60F7
S315080014603B1D00225A603B1D00229A603B1D00224C
S31508001470DA603B1D0021180001F0E8FF031E01D0C9
S3150800148000F004F8C046BD4615B090BD80B500AF63
S3150800149072B6C046FEE70000B0B594B006AF242188
S315080014A07B183B4A31CA31C312681A601423FB18E9
S315080014B0384A31CA31C312681A603B1D364A31CAE6
S315080014C031C312681A6037257C197918334B009393
S315080014D007230122022004F08CF8030023707B19ED
S315080014E01B78002B06D02E4B180005F065FA7B19E1
S315080014F01B7849E0294B188837257C191423FA18D4
S31508001500284B059301230493102303930123029385
S31508001510002301930C2300931423022104F004F9F9
S31508001520030023707B191B78002B06D01E4B18006E
S3150800153005F042FA7B191B7826E0184B18883725E0
S315080015407C193A1D194B0593012304931023039321
S3150800155000230293002301931023009314230221EE
S3150800156004F0E2F8030023707B191B78002B06D0E1
S315080015700F4B180005F020FA7B191B7804E0FFF7DB
S31508001580FDFD3723FB181B781800BD460EB0B0BD0D
S315080015901000002020000020300000206C070020EA
S315080015A0C07600086E070020E8760008700700205D
S315080015B010770008B0B586B002AF78600A00FB1C49
S315080015C01A700023FB600CE0FB687A68D3181B7856
S315080015D01A00164B1100180005F0EEF9FB680133E6
S315080015E0FB60FB1C1B78FA689A42EDDB104B18006F
S315080015F005F0E2F90F4B18880F4B19880B257C1953
S31508001600FB1C1A787B6800931300002204F072F919
S31508001610030023707B191B78002B03D0074B180097
S3150800162005F0CAF9C046BD4604B0B0BD3877000813
S31508001630407700086C0700207007002044770008F0
S3150800164080B584B000AF78600A00BB1C1A80164BC0
S3150800165001221A60154BBA1C12881A80144B0122F3
S315080016601A70144B180005F0A7F90523FB600CE067
S31508001670FB687A68D3181B781A000F4B11001800FC
S3150800168005F09AF9FB68013BFB60FB68002BEFDA73
S315080016907B681B781A00094B1100180005F08CF9B5
S315080016A0C046BD4604B080BD7407002078070020F8
S315080016B0670200206C770008887700089077000892
S315080016C080B500AF1F4B00221A601F4B00221A700C
S315080016D01E4B180005F070F91D4B1A881D4B1B8808
S315080016E09A4206D11C4B180005F066F9FFF794FDDF
S315080016F01EE0174B1B881900164B1B881A00174B40
S31508001700180005F059F9124B00221A80144B0122D1
S3150800171052421A80134B180005F04EF9FFF72EFDBA
S31508001720114B180005F048F9104B180005F044F95C
S315080017300F4B01221A700F4B00221A70C046BD4685
S3150800174080BDC0467407002067020020987700080D
S315080017506A07002068070020B4770008CC770008DD
S315080017600600002004780008287800083078000869
S31508001770400000207A07002080B582B000AF3A60AA
S31508001780BB1D021C1A807B1D0A1C1A70BB1D1A88F9
S315080017900F4B1B8801339A4207D17B1D1A783B6889
S315080017A011001800FFF712FA0DE0BB1D1A88094B45
S315080017B01B8802339A4206D13B681B78012B02D15B
S315080017C0054B01221A70C046BD4602B080BDC04610
S315080017D06E070020700700207A07002080B58AB0BF
S315080017E000AF78607B687B627B6A1B78042B63D1C9
S315080017F07B6A01333B623B6A1B78FF2B1FD052DCA6
S31508001800052B02D03E2B03D04DE0FFF759FF5DE0D4
S315080018103B6A02333B613B691B78012B55D13B6917
S315080018200133FB60FB68581DFB685A789B781B02DE
S3150800183013439BB21900FFF703FFC04645E03B6A16
S315080018400233FB61FB691A785B781B0213439BB270
S31508001850204A934203D0204A934211D036E0FB69CE
S3150800186002337B617B699A78DB781B02134398B253
S315080018707B6919797B6907331A00FFF77DFF11E049
S31508001880164B180005F098F8FB690233BB61BB6973
S315080018905A1DBB699B78023BDBB219001000FFF7A3
S315080018A095F9C04612E03B6A1B781A000C4B1100EA
S315080018B0180005F081F809E07B6A1B781A00094BC5
S315080018C01100180005F078F800E0C046C046BD468D
S315080018D00AB080BD010C00000F0C0000507800080B
S315080018E0687800087078000880B582B000AF0F4BA2
S315080018F01A6C0E4B01210A431A640C4B1B6C01220D
S3150800190013407B607B68094BDA6B084B80214905DD
S315080019100A43DA63054BDA6B80235B0513403B60A9
S315080019203B68C046BD4602B080BDC04600100240B6
S3150800193080B500AFFEE780B500AFFEE780B500AF23
S31508001940C046BD4680BD80B500AFC046BD4680BD19
S3150800195080B500AF00F036FBC046BD4680BD00002E
S3150800196080B500AF034B180000F08EFCC046BD469C
S3150800197080BDC0465C01002080B582B000AF002360
S315080019807B60124B124A1A60124B1B68591C114A8B
S315080019901160002B15D10D4B180002F0CFFB031E6A
S315080019A00FD10A4B180000F087F87B68002B08D186
S315080019B0064B180000F038F8031E02D008235B42D5
S315080019C07B607B681800BD4602B080BD7C0700209E
S315080019D000300140E007002090B589B002AFF860FA
S315080019E0B960BB1D1A8000237B61BB1D1C88BA68C1
S315080019F0F968084880235B010093230002F0CCF9BC
S31508001A00031E02D006235B427B617B691800BD4634
S31508001A1007B090BD7C07002080B500AF00F0E4FA5F
S31508001A2003001800BD4680BD90B585B000AF78604C
S31508001A300F243B1900221A707B681E4A1A607B68BD
S31508001A40822252005A607B6800229A607B68E022F4
S31508001A50D200DA607B6800221A617B6800225A612C
S31508001A607B68802292009A617B681822DA617B681B
S31508001A7000221A627B6800225A627B6800229A62F8
S31508001A807B680722DA627B6800221A637B68082271
S31508001A905A637B68180002F0BFF8031E02D03B1990
S31508001AA001221A700F23FB181B781800BD4605B0D3
S31508001AB090BDC0460030014090B58BB000AF78604D
S31508001AC0364B1A6C354B802149010A431A64334B4D
S31508001AD01A6C80235B0113403B613B692F4B5A6BA1
S31508001AE02E4B01210A435A632C4B5B6B0122134090
S31508001AF0FB60FB68294B5A6B284B02210A435A6341
S31508001B00264B5B6B02221340BB60BB6814243B194F
S31508001B1040221A603B1902225A603B1900229A6039
S31508001B203B190022DA603B1900221A613A19A023F0
S31508001B30DB051100180000F0E3FD3B1980221A604E
S31508001B403B1902225A603B1900229A603B1900226F
S31508001B50DA603B1900221A613A19A023DB05110045
S31508001B60180000F0CDFD21007B1808221A607B18AA
S31508001B7002225A607B1800229A607B180022DA60DB
S31508001B807B1800221A617B18054A1900100000F01C
S31508001B90B7FDC046BD460BB090BDC046001002401A
S31508001BA00004005080B586B000AFF860B9607A606E
S31508001BB000237B610AE000E000BF0100BB685A1CF5
S31508001BC0BA60CAB21A707B6901337B617A697B682D
S31508001BD09A42F0DB7B681800BD4606B080BD80B52A
S31508001BE086B000AFF860B9607A6000237B6109E0CF
S31508001BF0BB685A1CBA601B781800FFF7BFFB7B69E5
S31508001C0001337B617A697B689A42F1DB7B6818004D
S31508001C10BD4606B080BD80B582B000AF78600123AE
S31508001C205B421800BD4602B080BD80B582B000AFE9
S31508001C30786039603B68802292015A600023180058
S31508001C40BD4602B080BD80B582B000AF7860012382
S31508001C501800BD4602B080BD80B584B000AFF860FC
S31508001C60B9607A6000231800BD4604B080BD000044
S31508001C7080B586B000AF7860144A154BD31A7B61DD
S31508001C807B693B61134B1B68002B02D1114B124A2F
S31508001C901A60104B1A687B68D3183A699A4207D2B9
S31508001CA004F086FB03000C221A6001235B4209E05C
S31508001CB0084B1B68FB60074B1A687B68D218054BF4
S31508001CC01A60FB681800BD4606B080BD00400220B9
S31508001CD000040000E4070020980B002080B500AF40
S31508001CE0C046BD4680BD000080B500AF234B244AE0
S31508001CF01A60224BE12252025A60204B00229A6057
S31508001D001E4B0022DA601D4B00221A611B4B0C2267
S31508001D105A611A4B00229A61184B0022DA61174B56
S31508001D2000221A62154B00225A62144B00229A624C
S31508001D30124B180002F084FB031E01D0FFF7A6FB26
S31508001D400E4B0021180003F0C7F9031E01D0FFF758
S31508001D509DFB0A4B0021180003F0FEF9031E01D073
S31508001D60FFF794FB054B180003F07CF9031E01D01E
S31508001D70FFF78CFBC046BD4680BDC046E80700207D
S31508001D800044004090B59DB000AF78605C23FB1816
S31508001D90180014231A00002104F024FD10243B190E
S31508001DA018004C231A00002104F01CFD7B681B68F0
S31508001DB0224A93423ED13B1902221A603B1900225D
S31508001DC09A603B19180001F0EBFC031E01D0FFF7DF
S31508001DD05DFB1B4BDA6B1A4B802189020A43DA63D7
S31508001DE0174BDA6B80239B021340FB60FB68144B8E
S31508001DF05A6B134B01210A435A63114B5B6B012241
S31508001E001340BB60BB685C217B180C221A607B18E8
S31508001E1002225A607B1800229A607B180022DA6038
S31508001E207B1801221A617A18A023DB051100180015
S31508001E3000F066FCC046BD461DB090BD004400409B
S31508001E40001002400D488546FFF748FF0C480D492B
S31508001E500D4A002302E0D458C4500433C4188C42F7
S31508001E60F9D30A4A0A4C002301E013600432A2425D
S31508001E70FBD304F087FCFFF793FAFEE70040022045
S31508001E80000000203C010020B07900084001002035
S31508001E90980B0020FEE7000080B582B000AFFB1D5E
S31508001EA000221A700B4B1A680A4B802149000A4314
S31508001EB01A60002000F03CF8031E03D0FB1D012227
S31508001EC01A7001E0FFF710FDFB1D1B781800BD46D0
S31508001ED002B080BD0020024080B500AF104B012241
S31508001EE05242DA620E4B0022DA620D4B012252424E
S31508001EF01A630B4B00221A63094B012252429A625B
S31508001F00074B00229A62064B012252425A62044B40
S31508001F1000225A6200F006F800231800BD4680BD6C
S31508001F200010024080B500AFC046BD4680BD000027
S31508001F3090B585B000AF78600F23FB1800221A70A1
S31508001F401D4B1B78002B2BD01C4B1C681A4B1B787F
S31508001F501900FA239800FEF7E9F803001900200093
S31508001F60FEF7E4F80300180000F03DF9031E12D14D
S31508001F707B68032B0AD8796801235B420022180084
S31508001F8000F00CF90E4B7A681A600DE00F23FB1867
S31508001F9001221A7008E00F23FB1801221A7003E0C9
S31508001FA00F23FB1801221A700F23FB181B78180041
S31508001FB0BD4605B090BDC0464C0000204400002038
S31508001FC04800002080B500AF054B1B781A00054B6A
S31508001FD01B68D218034B1A60C046BD4680BDC04672
S31508001FE04C0000207C08002080B500AF024B1B681F
S31508001FF01800BD4680BDC0467C08002080B584B068
S3150800200000AF7860FFF7F0FF0300BB607B68FB60FA
S31508002010FB68013305D00A4B1B781A00FB689B182E
S31508002020FB60C046FFF7E0FF0200BB68D31AFA68F8
S315080020309A42F7D8C046C046BD4604B080BDC046E1
S315080020404C00002080B582B000AF0200FB1D1A705C
S31508002050FB1D1B787F2B09D8FB1D1B781A001F2335
S315080020601A40044B012191400A001A60C046BD4639
S3150800207002B080BD00E100E090B583B000AF020079
S315080020803960FB1D1A70FB1D1B787F2B28D82F4A39
S31508002090FB1D1B785BB29B08C0339B009B58FA1D3F
S315080020A01278110003220A40D200FF2191400A004B
S315080020B0D2431A4011003B689B01FF221A40FB1DC0
S315080020C01B78180003230340DB009A401F48FB1DBA
S315080020D01B785BB29B080A43C0339B001A5031E059
S315080020E01B4AFB1D1B7819000F230B40083B9B0856
S315080020F006339B00D31804331B68FA1D12781100A7
S3150800210003220A40D200FF2191400A00D2431A4016
S3150800211011003B689B01FF221A40FB1D1B78180023
S3150800212003230340DB009A400948FB1D1B781C006B
S315080021300F232340083B9B080A4306339B00C3181A
S3150800214004331A60C046BD4603B090BD00E100E006
S3150800215000ED00E080B582B000AF78607B685A1E5B
S3150800216080235B049A4201D3012310E00A4B7A6864
S31508002170013A5A6001235B4203211800FFF77CFFEE
S31508002180054B00229A60044B07221A6000231800A8
S31508002190BD4602B080BDC04610E000E080B584B000
S315080021A000AFB9607A600F217B18021C1A70BA68F2
S315080021B07B181B785BB211001800FFF75DFFC0465D
S315080021C0BD4604B080BD80B582B000AF0200FB1DDD
S315080021D01A70FB1D1B785BB21800FFF733FFC04669
S315080021E0BD4602B080BD80B582B000AF78607B681E
S315080021F01800FFF7AFFF03001800BD4602B080BD08
S3150800220080B586B000AFF8607A600B203B180A1CD0
S315080022101A701723FB1800221A703B181B78022B1A
S3150800222010D013DC002B02D0012B07D00EE0FB6880
S315080022307A685A60FB687A689A600CE0FB687A6884
S315080022405A6008E0FB687A689A6004E01723FB186E
S3150800225001221A70C0461723FB181B781800BD46C2
S3150800226006B080BD80B582B000AF786039607B6803
S31508002270002B01D1012303E07B683A681A6000232A
S315080022801800BD4602B080BD80B586B000AF786044
S315080022907B681B681B0C012213407B617B681B68EB
S315080022A01F22134001229A4013003B617B695B01A0
S315080022B0184A94466344FB60FB681A683B691340F6
S315080022C0BB60BB68002B09D0FB683A691A607B685B
S315080022D05B68002B02D07B685B6898477B695B016B
S315080022E00D4A94466344FB60FB681A683B691340D1
S315080022F0BB60BB68002B09D0FB683A691A607B682B
S315080023009B68002B02D07B689B689847C046BD46F1
S3150800231006B080BD0C18024010180240B0B586B051
S3150800232000AFF860B9603A607B60214B1B78012BDF
S3150800233001D1022338E01E4B01221A701C4B0022E1
S315080023405A6017257C19FA239B00180000F0BAF882
S31508002350030023707B191B78002B1FD1FB68012B08
S3150800236006D13A687B68B968080000F0F9F805E014
S315080023703A68BB681100180005F04EF81723FC18D8
S31508002380FA239B00180000F09DF803002370094B00
S315080023905A69FB68D943074B0A405A61044B002225
S315080023A01A701723FB181B781800BD4606B0B0BD77
S315080023B0800800200020024080B582B000AFFB1DD7
S315080023C000221A700B4B5B69002B0CDA094B0A4A80
S315080023D09A60084B094A9A60064B5B69002B02DA39
S315080023E0FB1D01221A70FB1D1B781800BD4602B0A2
S315080023F080BDC0460020024023016745AB89EFCD6A
S3150800240080B582B000AFFB1D01221A70094B5A69CC
S31508002410084B802109060A435A61064B5B69002B63
S3150800242002DAFB1D00221A70FB1D1B781800BD4638
S3150800243002B080BD0020024080B582B000AFFB1D0F
S3150800244001221A700D4B5A698023DB0513400ED002
S315080024500A4B0B4ADA60094B0A4ADA60074B5A6993
S315080024608023DB05134002D1FB1D00221A70FB1DD9
S315080024701B781800BD4602B080BDC0460020024049
S315080024803B2A19087F6E5D4C80B582B000AFFB1DF4
S3150800249001221A700A4B5A69094B8021C9050A4359
S315080024A05A61074B5A698023DB05134002D0FB1D8E
S315080024B000221A70FB1D1B781800BD4602B080BDAD
S315080024C00020024080B584B000AF7860FFF78CFD2D
S315080024D002007B689B18FB60C0239B02BB6007E079
S315080024E0FFF782FD0200FB68934201D803232AE026
S315080024F0174B1B69BA681340F2D1154B1B69154A6D
S315080025001340BB60124B144A1A61BB68002B04D0F7
S31508002510124BBA685A60012315E0FFF765FD020001
S315080025207B689B18FB6007E0FFF75EFD0200FB680F
S31508002530934201D8032306E0054B1A698023DB0280
S315080025401340F1D100231800BD4604B080BDC04633
S3150800255000200240FAC30000FBC3080080080020E0
S31508002560B0B584B000AFF8603A607B600B4B5A692F
S315080025700A4B01210A435A61FB683A681A60BFF39D
S315080025806F8FC0467B681C0000231D00FB68043360
S3150800259022001A60C046BD4604B0B0BD0020024005
S315080025A0B0B584B000AF78603960334B1B78012B27
S315080025B001D102235CE0304B01221A702E4B002217
S315080025C05A600F257C19FA239B001800FFF77AFF3B
S315080025D0030023702C003B191B78002B42D17B6823
S315080025E01B68042B0DD17B685B68180000F048F85F
S315080025F03C19FA239B001800FFF764FF03002370B9
S3150800260030E03B68012252421A607B689B68BB60D7
S315080026101AE07B685B68BA681100180000F044F895
S315080026200F257C19FA239B001800FFF74BFF0300C0
S3150800263023707B191B78002B03D03B68BA681A6095
S315080026400AE0BB680133BB607B689A687B68DB6815
S31508002650D318BA689A42DCD3084B5A69074B022149
S315080026608A435A61044B00221A700F23FB181B7801
S315080026701800BD4604B0B0BD800800200020024006
S3150800268080B582B000AF7860064B5A697B681A43FA
S31508002690044B802149020A435A61C046BD4602B02E
S315080026A080BDC0460020024080B584B000AF786087
S315080026B039600F4B5B690F4A1340FB607B68042B3C
S315080026C005D0FB68802292011343FB6003E0FB6898
S315080026D0094A1340FB603B68DA00FB681A43044B5F
S315080026E006490A435A61C046BD4604B080BDC04685
S315080026F00020024007E0FFFFFFDFFFFF02000100A6
S3150800270080B586B000AF7860396000237B614DE103
S315080027103B681B6801217A6991400A001340FB60F7
S31508002720FB68002B00D13EE13B685B68032213403F
S31508002730012B05D03B685B6803221340022B30D17E
S315080027407B689B683B617B695B0003229A401300A8
S31508002750DA433B6913403B613B68DA687B695B0097
S315080027609A4013003A6913433B617B683A699A6059
S315080027707B685B683B6101227B699A401300DA43F8
S315080027803B6913403B613B685B681B0901221A40A1
S315080027907B699A4013003A6913433B617B683A693F
S315080027A05A603B685B6803221340032B17D07B688B
S315080027B0DB683B617B695B0003229A401300DA43BE
S315080027C03B6913403B613B689A687B695B009A40AA
S315080027D013003A6913433B617B683A69DA603B68E0
S315080027E05B6803221340022B23D17B69DA087B68D6
S315080027F008329200D3583B617B69072213409B003D
S315080028000F229A401300DA433B6913403B613B6849
S315080028101A697B6907210B409B009A4013003A69A5
S3150800282013433B617B69DA087B6808329200396991
S31508002830D1507B681B683B617B695B0003229A4029
S315080028401300DA433B6913403B613B685B6803222C
S315080028501A407B695B009A4013003A6913433B614F
S315080028607B683A691A603B685A68C0239B02134022
S3150800287000D198E0534A7B699B0818339B009B5804
S315080028803B617B6903221340DB000F229A40130049
S31508002890DA433B6913403B617A68A023DB059A4219
S315080028A019D07B68484A934213D07B68474A9342BB
S315080028B00DD07B68464A934207D07B68454A9342C7
S315080028C001D1042308E0052306E0032304E00223DC
S315080028D002E0012300E000237A6903210A40D200BE
S315080028E093403A6913433B6136497B699B08183321
S315080028F09B003A695A50334B1B683B61FB68DA43C5
S315080029003B6913403B613B685A6880235B0313406D
S3150800291003D03A69FB6813433B612A4B3A691A604C
S31508002920284B5B683B61FB68DA433B6913403B61B4
S315080029303B685A6880239B03134003D03A69FB68B7
S3150800294013433B611F4B3A695A601E4A8423D35886
S315080029503B61FB68DA433B6913403B613B685A6855
S3150800296080239B02134003D03A69FB6813433B61FB
S31508002970144984223B698B50124A8023D3583B6101
S31508002980FB68DA433B6913403B613B685A6880231E
S315080029905B02134003D03A69FB6813433B6109495C
S315080029A080223B698B507B6901337B613B681A68DF
S315080029B07B69DA40131E00D0AAE6C046C046BD466B
S315080029C006B080BD00180240000400500008005000
S315080029D0000C00500010005080B586B000AF78603B
S315080029E0396000237B61BAE001227B699A403B6823
S315080029F013403B613B69002B00D1ADE05D4A7B6922
S31508002A009B0818339B009B58FB607B690322134085
S31508002A10DB000F229A40FB681340FB607A68A0230C
S31508002A20DB059A4219D07B68534A934213D07B68D8
S31508002A30524A93420DD07B68514A934207D07B682D
S31508002A40504A934201D1042308E0052306E00323F4
S31508002A5004E0022302E0012300E000237A6903214F
S31508002A600A40D2009340FA689A4236D1414A8023F6
S31508002A70D3583A69D2433F49134080228B503D4A86
S31508002A808423D3583A69D2433A49134084228B5057
S31508002A90384B5A683B69D943364B0A405A60354B1E
S31508002AA01A683B69D943334B0A401A607B6903228B
S31508002AB01340DB000F229A401300FB602D4A7B6906
S31508002AC09B0818339B009A58FB68D94329487B69A9
S31508002AD09B080A4018339B001A507B681A687B6962
S31508002AE05B00032199400B001A437B681A607B69D7
S31508002AF0DA087B6808329200D3587A6907210A40B7
S31508002B0092000F2191400A00D1437A69D2081940F0
S31508002B107B6808329200D1507B689B687A695200BC
S31508002B20032191400A00D2431A407B689A607B6869
S31508002B305B6801217A6991400A00D2431A407B6892
S31508002B405A607B68DB687A695200032191400A0063
S31508002B50D2431A407B68DA607B6901337B613A6845
S31508002B607B69DA40131E00D03EE7C046C046BD4624
S31508002B7006B080BD0018024000040050000800504E
S31508002B80000C00500010005080B584B000AF78608B
S31508002B900A00BB1C1A807B681B69BA1C1288134082
S31508002BA004D00F23FB1801221A7003E00F23FB1829
S31508002BB000221A700F23FB181B781800BD4604B0B4
S31508002BC080BD80B582B000AF786008001100BB1CDC
S31508002BD0021C1A807B1C0A1C1A707B1C1B78002B93
S31508002BE004D0BB1C1A887B689A6103E0BB1C1A8850
S31508002BF07B689A62C046BD4602B080BD80B584B087
S31508002C0000AF7860194B1B68194A13401900174B17
S31508002C107A680A431A607A6880239B009A421FD111
S31508002C20144B1A6813005B009B185B0012491800C6
S31508002C30FDF77CFA03000133FB6008E0FB68002B14
S31508002C4003D0FB68013BFB6001E0032309E0074B67
S31508002C505A698023DB001A408023DB009A42EDD0B4
S31508002C6000231800BD4604B080BDC0460070004071
S31508002C70FFF9FFFF4400002040420F0080B500AF77
S31508002C80034B9A68E023DB0113401800BD4680BD5C
S31508002C900010024080B582B000AFFFF7A5F9030027
S31508002CA07B60354B1A68344B802149000A431A6009
S31508002CB008E0FFF799F902007B68D31A022B01D9BD
S31508002CC0032354E02C4B1A688023DB001340F0D012
S31508002CD0294B8022D2015A60FFF786F903007B60F0
S31508002CE0254B00229A6009E0FFF77EF902007B680F
S31508002CF0D31A224A934201D9032338E01E4B9B6814
S31508002D0038221340F0D11C4B802252001A601A4B0D
S31508002D10802252001A60FFF767F903007B6008E01B
S31508002D20FFF762F902007B68D31A022B01D9032345
S31508002D301DE0114B1A6880239B041340F0D10E4BFB
S31508002D4080225201DA600C4B00229A610A4B01225A
S31508002D5052421A620A4B0B4A1A600B4B1B68180040
S31508002D60FFF7E6F8031E01D0012300E00023180050
S31508002D70BD4602B080BDC046001002408813000060
S31508002D80440000200024F4004800002080B588B0E4
S31508002D9000AF78607B68002B02D1012300F050FB5E
S31508002DA07B681B680122134000D17CE0C34B9B68FB
S31508002DB038221340BB61C14BDB68032213407B6199
S31508002DC0BB69102B02D17B69032B02D0BB69082B88
S31508002DD00BD1BA4B1A6880239B02134062D07B68DA
S31508002DE05B68002B5ED101232AE37B685A6880233F
S31508002DF05B029A4207D1B14B1A68B04B802149024F
S31508002E000A431A6020E07B685A68A023DB029A42CC
S31508002E100ED1AA4B1A68A94B8021C9020A431A6027
S31508002E20A64B1A68A54B802149020A431A600BE093
S31508002E30A24B1A68A14BA2490A401A609F4B1A680E
S31508002E409E4BA0490A401A607B685B68002B14D029
S31508002E50FFF7CAF803003B6108E0FFF7C5F8020070
S31508002E603B69D31A642B01D90323E9E2934B1A6809
S31508002E7080239B021340F0D015E0FFF7B5F8030056
S31508002E803B6108E0FFF7B0F802003B69D31A642BF0
S31508002E9001D90323D4E2894B1A6880239B02134085
S31508002EA0F0D100E0C0467B681B680222134000D1BF
S31508002EB099E0824B9B6838221340BB617F4BDB68E5
S31508002EC0032213407B61BB69102B02D17B69022B5D
S31508002ED002D0BB69002B35D1784B1A688023DB00FA
S31508002EE0134005D07B68DB68002B01D10123A7E2DC
S31508002EF0724B5B68744A134019007B685B691A0257
S31508002F006E4B0A435A60BB69002B12D16B4B1B6888
S31508002F106E4A134019007B681A69684B0A431A609F
S31508002F20664B1B68DB0A07221340694ADA40694B7D
S31508002F301A60694B1B681800FEF7FAFF031E51D08A
S31508002F4001237DE27B68DB68002B30D05B4B1B6876
S31508002F505E4A134019007B681A69584B0A431A607F
S31508002F60564B1A68554B802149000A431A60FFF7E9
S31508002F703BF803003B6108E0FFF736F802003B69BF
S31508002F80D31A022B01D903235AE24C4B1A68802321
S31508002F90DB001340F0D0494B5B684B4A13401900DD
S31508002FA07B685B691A02454B0A435A601BE0434B30
S31508002FB01A68424B49490A401A60FFF715F8030098
S31508002FC03B6108E0FFF710F802003B69D31A022BB1
S31508002FD001D9032334E2394B1A688023DB001340F6
S31508002FE0F0D100E0C0467B681B680822134047D032
S31508002FF0324B9B6838221340182B0AD12F4B1B6E75
S31508003000022213403CD07B689B69002B38D10123F0
S3150800301016E27B689B69002B19D0284B1A6E274B42
S3150800302001210A431A66FEF7DFFF03003B6108E049
S31508003030FEF7DAFF02003B69D31A022B01D90323F4
S31508003040FEE11E4B1B6E02221340F1D018E01B4B0B
S315080030501A6E1A4B01218A431A66FEF7C5FF03004A
S315080030603B6108E0FEF7C0FF02003B69D31A022B5A
S3150800307001D90323E4E1114B1B6E02221340F1D15F
S315080030807B681B680422134000D1C7E01F23FB1886
S3150800309000221A70094B9B6838221340202B1FD137
S315080030A0064BDB6D0222134000D1B7E07B689B68B4
S315080030B0002B00D0B2E00123C2E1C0460010024056
S315080030C0FFFFFEFFFFFFFBFFFF80FFFFFFC7FFFFBE
S315080030D00024F4004400002048000020FFFEFFFF03
S315080030E0B54BDA6B80235B05134001D1012300E061
S315080030F00023002B11D0B04BDA6BAF4B802149056A
S315080031000A43DA63AC4BDA6B80235B051340FB603A
S31508003110FB681F23FB1801221A70A84B1A68802324
S315080031205B0013401AD1A54B1A68A44B80214900AD
S315080031300A431A60FEF758FF03003B6108E0FEF7F2
S3150800314053FF02003B69D31A022B01D9032377E107
S315080031509A4B1A6880235B001340F0D07B689B6803
S31508003160012B06D1944BDA6D934B01210A43DA659C
S315080031701CE07B689B68052B0CD18F4BDA6D8E4B58
S3150800318004210A43DA658C4BDA6D8B4B01210A431D
S31508003190DA650BE0884BDA6D874B01218A43DA65DD
S315080031A0854BDA6D844B04218A43DA657B689B6814
S315080031B0002B14D0FEF718FF03003B6109E0FEF769
S315080031C013FF02003B69D31A7D4A934201D90323B0
S315080031D036E1794BDB6D02221340F0D013E0FEF79F
S315080031E003FF03003B6109E0FEF7FEFE02003B69B0
S315080031F0D31A734A934201D9032321E16E4BDB6D3F
S3150800320002221340F0D11F23FB181B78012B05D18E
S31508003210694BDA6B684B6B490A40DA637B681B6853
S315080032202022134039D07B68DB69002B1BD0624B08
S315080032301A68614B8021C9030A431A60FEF7D4FE57
S3150800324003003B6108E0FEF7CFFE02003B69D31A94
S31508003250022B01D90323F3E0574B1A6880231B047A
S315080032601340F0D019E0544B1A68534B56490A409C
S315080032701A60FEF7B9FE03003B6108E0FEF7B4FEEC
S3150800328002003B69D31A022B01D90323D8E04A4B23
S315080032901A6880231B041340F0D17B681B6A002B35
S315080032A000D1CCE0444B9B6838221340102B00D148
S315080032B07BE07B681B6A022B56D13F4B1A683E4B54
S315080032C042490A401A60FEF78FFE03003B6108E098
S315080032D0FEF78AFE02003B69D31A022B01D90323A3
S315080032E0AEE0354B1A6880239B041340F0D1324B6D
S315080032F0DB68374A134019007B685A6A7B689B6A01
S315080033001A437B68DB6A1B021A437B681B6B1A43EA
S315080033107B685B6B1A437B689B6B1A43264B0A4395
S31508003320DA60254B1A68244B802149040A431A603F
S31508003330214BDA68204B802149050A43DA60FEF7FB
S3150800334053FE03003B6108E0FEF74EFE02003B69B0
S31508003350D31A022B01D9032372E0174B1A6880236C
S315080033609B041340F0D06AE0134B1A68124B1749B6
S315080033700A401A60FEF738FE03003B6108E0FEF7D4
S3150800338033FE02003B69D31A022B01D9032357E007
S31508003390094B1A6880239B041340F0D1064BDA6860
S315080033A0054B0C490A40DA6049E07B681B6A012B29
S315080033B012D1012344E0C0460010024000700040CC
S315080033C088130000FFFFFFEFFFFFBFFFFFFFFFFEB1
S315080033D08C80C111FCFFFEEE1B4BDB687B617B69B1
S315080033E003221A407B685B6A9A4226D17B6970225F
S315080033F01A407B689B6A9A421FD17A69FE23DB01D1
S315080034001A407B68DB6A1B029A4216D17A69F8234E
S315080034109B031A407B681B6B9A420ED17A69E0239C
S315080034201B051A407B685B6B9A4206D17B695B0F6A
S315080034305A077B689B6B9A4201D0012300E0002360
S315080034401800BD4608B080BD0010024080B584B0A3
S3150800345000AF786039607B68002B01D10123E9E071
S31508003460764B1B68072213403A689A421ED9734B5B
S315080034701B68072293431900704B3A680A431A607F
S31508003480FEF7B2FD0300FB6009E0FEF7ADFD0200A2
S31508003490FB68D31A6A4A934201D90323CAE0674BE9
S315080034A01B68072213403A689A42EED17B681B686C
S315080034B00222134015D07B681B680422134006D0ED
S315080034C0604B9A685F4BE021C9010A439A605D4BDD
S315080034D09B685D4A134019007B689A68594B0A43F2
S315080034E09A607B681B680122134057D07B685B682B
S315080034F0012B07D1534B1A6880239B0213402BD10B
S31508003500012397E07B685B68022B07D14D4B1A684D
S3150800351080239B0413401FD101238BE07B685B68E3
S31508003520002B07D1474B1A688023DB00134013D1C1
S3150800353001237FE07B685B68032B06D1414B1B6E3A
S315080035400222134008D1012374E03E4BDB6D0222B0
S31508003550134001D101236DE03A4B9B680722934340
S3150800356019007B685A68374B0A439A60FEF73CFD98
S315080035700300FB6009E0FEF737FD0200FB68D31A7B
S315080035802F4A934201D9032354E02E4B9B683822D5
S315080035901A407B685B68DB009A42ECD1274B1B68B4
S315080035A0072213403A689A421ED2244B1B68072208
S315080035B093431900214B3A680A431A60FEF714FD33
S315080035C00300FB6009E0FEF70FFD0200FB68D31A53
S315080035D01B4A934201D903232CE0184B1B68072288
S315080035E013403A689A42EED17B681B68042213405E
S315080035F009D0144B9B68154A134019007B68DA6892
S31508003600104B0A439A6000F029F801000D4B9B689D
S315080036101B0A0F221A400E4B9200D3581F22134042
S315080036200A00DA400B4B1A600B4B1B681800FEF7B2
S315080036307FFC03001800BD4604B080BD0020024090
S315080036408813000000100240FFF0FFFFFF8FFFFF06
S3150800365080780008440000204800002080B586B025
S3150800366000AF3C4B9B68382213400FD1394B1B687F
S31508003670DB0A0722134001229A4013003B6039688F
S315080036803548FCF753FD03003B615DE0314B9B6811
S3150800369038221340082B02D1304B3B6154E02D4BA6
S315080036A09B6838221340102B38D12A4BDB6803223B
S315080036B01340FB60274BDB681B09072213400133C5
S315080036C0BB60FB68032B0DD1B9682448FCF72EFDB7
S315080036D0030019001F4BDB681B0A7F2213404B436C
S315080036E07B610DE0B9681C48FCF720FD0300190052
S315080036F0184BDB681B0A7F2213404B437B61C0468D
S31508003700144BDB685B0F0722134001337B60796833
S315080037107869FCF70BFD03003B6115E00D4B9B68D0
S3150800372038221340202B03D180231B023B610BE078
S31508003730084B9B6838221340182B03D1FA23DB0168
S315080037403B6101E000233B613B691800BD4606B0BA
S3150800375080BDC046001002400024F40000127A0022
S3150800376080B500AF024B1B681800BD4680BDC04639
S3150800377044000020B0B500AFFFF7F2FF0400FFF7E2
S315080037807DFA03001A0B054B9200D3581F221340EB
S31508003790DC4023001800BD46B0BDC046C07800080E
S315080037A080B586B000AF78601323FB1800221A7024
S315080037B01223FB1800221A707B681A6880239B0262
S315080037C0134000D1ADE011203B1800221A70474B78
S315080037D0DA6B80235B05134010D1444BDA6B434BFD
S315080037E0802149050A43DA63404BDA6B80235B057F
S315080037F01340BB60BB683B1801221A703C4B1A6821
S315080038003B4B802149000A431A60FEF7EDFB030093
S31508003810FB600BE0FEF7E8FB0200FB68D31A022BFD
S3150800382004D91323FB1803221A7005E0304B1A68D3
S3150800383080235B001340EDD01323FB181B78002B65
S315080038405ED12A4BDA6DC0239B0013407B617B69EE
S31508003850002B19D07B681B6C7A699A4214D0234BCB
S31508003860DB6D244A13407B61204BDA6D1F4B8021A8
S3150800387049020A43DA651D4BDA6D1C4B1E490A409C
S31508003880DA651A4B7A69DA657B690122134016D024
S31508003890FEF7AAFB0300FB600CE0FEF7A5FB02009F
S315080038A0FB68D31A154A934204D91323FB1803223B
S315080038B01A7004E00D4BDB6D02221340EDD0132382
S315080038C0FB181B78002B0AD1084BDB6D094A1340FD
S315080038D019007B681A6C054B0A43DA6516E0122351
S315080038E0FB181322BA1812781A700FE0001002405B
S315080038F000700040FFFCFFFFFFFFFEFF881300007B
S315080039001223FB181322BA1812781A701123FB18FF
S315080039101B78012B05D1B64BDA6BB54BB5490A4076
S31508003920DA637B681B680122134009D0B04B5B6DD4
S315080039300322934319007B685A68AD4B0A435A65BC
S315080039407B681B680222134009D0A94B5B6D0C22C9
S31508003950934319007B689A68A54B0A435A657B68A6
S315080039601B680422134009D0A14B5B6D3022934398
S3150800397019007B68DA689E4B0A435A657B681B68A0
S315080039801022134009D09A4B5B6D9B4A13401900CD
S315080039907B681A69964B0A435A657B681A688023BE
S315080039A05B01134009D0924B5B6D944A1340190092
S315080039B07B685A698E4B0A435A657B681A68802366
S315080039C09B00134009D08A4B5B6D8D4A1340190042
S315080039D07B689A6A864B0A435A657B681A6880230D
S315080039E0DB00134009D0824B5B6D864A13401900F1
S315080039F07B68DA6A7E4B0A435A657B681B68202215
S31508003A00134009D07A4B5B6D7F4A134019007B68D7
S31508003A109A69774B0A435A657B681B6840221340AC
S31508003A2009D0734B5B6D794A134019007B68DA69D4
S31508003A306F4B0A435A657B681A688023DB0113407B
S31508003A4015D06B4B5B6D9B0099087B681A6B684BAE
S31508003A500A435A657B681A6B8023DB059A4206D1AE
S31508003A60634BDA68624B802149020A43DA607B6855
S31508003A701A6880231B03134009D05D4B5B6D4022F7
S31508003A80934319007B685A6B594B0A435A657B68FE
S31508003A901A6880239B03134016D0554B5B6D5C4A0E
S31508003AA0134019007B689A6B514B0A435A657B6829
S31508003AB09A6B8023DB039A4206D14D4BDA684C4B4E
S31508003AC0802149040A43DA607B681A688023DB038D
S31508003AD0134016D0464B5B6D4E4A134019007B685F
S31508003AE0DA6B434B0A435A657B68DA6B80235B04BF
S31508003AF09A4206D13E4BDA683D4B802149040A4377
S31508003B00DA607B681A6880231B01134014D0384B8F
S31508003B109B6D0322934319007B681A6A344B0A4348
S31508003B209A657B681B6A012B06D1314BDA68304BE4
S31508003B30802149020A43DA607B681A6880239B0160
S31508003B40134014D02A4B9B6D0C22934319007B68B3
S31508003B505A6A274B0A439A657B685B6A042B06D127
S31508003B60234BDA68224B802149020A43DA607B68D4
S31508003B701A6880235B04134016D01D4B9B6D224A9E
S31508003B80134019007B685A6C194B0A439A657B687F
S31508003B905A6C80239B019A4206D1154BDA68144B5E
S31508003BA0802149040A43DA607B681A6880239B04EB
S31508003BB0134016D00E4B9B6D104A134019007B68B4
S31508003BC09A6C0B4B0A439A657B689A6C80235B0058
S31508003BD09A4206D1064BDA68054B802149040A4306
S31508003BE0DA601223FB181B781800BD4606B080BDA4
S31508003BF000100240FFFFFFEFFFF3FFFFFFFCFFFF90
S31508003C00FFFFF3FFFFFFCFFFFFCFFFFFFF3FFFFFE2
S31508003C10FFFFBFFFFFFFFFFE80B584B000AF7860EF
S31508003C207B68002B01D10123A8E07B685B6A002B27
S31508003C3009D17B685A6882235B009A4209D07B685F
S31508003C400022DA6105E07B6800221A617B6800229F
S31508003C505A617B6800229A627B685D229B5CDBB2B4
S31508003C60002B07D17B685C22002199547B681800D9
S31508003C7000F08AF87B685D22022199547B681B68EC
S31508003C801A687B681B6840218A431A607B68DA6871
S31508003C90E023DB009A4202D90023FB6002E080237E
S31508003CA05B01FB607B68DA68F0231B019A4208D047
S31508003CB07B68DA68E023DB009A4202D07B68002240
S31508003CC09A627B685A6882235B001A407B68996807
S31508003CD084231B020B401A437B681B6902210B4095
S31508003CE01A437B685B6901210B401A437B68996913
S31508003CF080239B000B401A437B68DB6938210B4005
S31508003D001A437B681B6A80210B401A4311007B68A3
S31508003D109A6A80239B011A407B681B680A431A60CB
S31508003D207B689B691B0C04221A407B685B6A10211E
S31508003D300B401A437B685B6B08210B401A437B6870
S31508003D40D968F0231B010B401A431100FA68802337
S31508003D505B011A407B681B680A435A607B681B68CC
S31508003D60DA697B681B6807490A40DA617B680022C2
S31508003D701A667B685D220121995400231800BD4606
S31508003D8004B080BDFFF7FFFF80B582B000AF786052
S31508003D90C046BD4602B080BD80B58AB000AFF860A7
S31508003DA0B9607A601A00BB1C1A8001237B62232340
S31508003DB0FB1800221A70FB685C229B5C012B01D160
S31508003DC00223B5E1FB685C2201219954FEF70CF940
S31508003DD00300FB611B203B18FA685D21525C1A70D0
S31508003DE0FB685B687B611223FB18BA1C12881A8071
S31508003DF03B181B78012B11D07A6982235B009A4203
S31508003E0007D1FB689B68002B03D13B181B78042B52
S31508003E1004D02323FB1802221A707EE1BB68002B0C
S31508003E2006D07B68002B03D0BB1C1B88002B04D153
S31508003E302323FB1801221A706FE1FB685D229B5C45
S31508003E40DBB2042B03D0FB685D2205219954FB687D
S31508003E5000221A66FB687A681A64FB68BA1C46214F
S31508003E6012885A52FB68BA1C442112885A52FB68B7
S31508003E70BA689A63FB68BA1C1288DA87FB68BA1CA8
S31508003E8012889A87FB680022DA64FB6800221A65A2
S31508003E90FB68DA68E023DB009A4208D9FB681B68EE
S31508003EA05A68FB681B68A4490A405A6008E0FB6820
S31508003EB01B685A68FB681B68802149010A435A60D7
S31508003EC0FB681B681B6840221340402B07D0FB6821
S31508003ED01B681A68FB681B6840210A431A60FB685E
S31508003EE0DA68E023DB009A4200D87FE0FB685B686B
S31508003EF0002B05D01223FB181B88012B00D069E084
S31508003F00FB689B6B1A88FB681B68DA60FB689B6B0F
S31508003F109A1CFB689A63FB68DB8F9BB2013B9AB2DB
S31508003F20FB68DA8756E0FB681B689B680222134029
S31508003F30022B1BD1FB68DB8F9BB2002B16D07B6A4A
S31508003F40012B13D1FB689B6B1A88FB681B68DA6028
S31508003F50FB689B6B9A1CFB689A63FB68DB8F9BB2BA
S31508003F60013B9AB2FB68DA8700237B62FB681B6811
S31508003F709B6801221340012B1CD1FB6846229B5AE1
S31508003F809BB2002B16D0FB681B68DA68FB681B6CB3
S31508003F9092B21A80FB681B6C9A1CFB681A64FB6851
S31508003FA046229B5A9BB2013B99B2FB68462299521C
S31508003FB001237B62FEF718F80200FB69D31A3A6BF5
S31508003FC09A4207D83B6B013304D02323FB180322FC
S31508003FD01A70A2E0FB68DB8F9BB2002BA3D1FB68AB
S31508003FE046229B5A9BB2002B9DD185E0FB685B68F5
S31508003FF0002B05D01223FB181B88012B00D070E07C
S31508004000FB689A6BFB681B680C3312781A70FB689E
S315080040109B6B5A1CFB689A63FB68DB8F9BB2013B60
S315080040209AB2FB68DA875CE0FB681B689B68022229
S315080040301340022B1CD1FB68DB8F9BB2002B17D0D9
S315080040407B6A012B14D1FB689A6BFB681B680C33DF
S3150800405012781A70FB689B6B5A1CFB689A63FB689C
S31508004060DB8F9BB2013B9AB2FB68DA8700237B623F
S31508004070FB681B689B6801221340012B1ED1FB6855
S3150800408046229B5A9BB2002B18D0FB681B680C3340
S315080040901A00FB681B6C1278D2B21A70FB681B6C8C
S315080040A05A1CFB681A64FB6846229B5A9BB2013B62
S315080040B099B2FB684622995201237B62FDF794FF69
S315080040C00200FB69D31A3A6B9A4202D83B6B01335A
S315080040D002D13B6B002B04D12323FB1803221A7051
S315080040E01BE0FB68DB8F9BB2002B9DD1FB68462249
S315080040F09B5A9BB2002B97D1FA69396BFB6818005B
S3150800410000F058F9031E07D02323FB1801221A7062
S31508004110FB6820221A6600E0C046FB685D22012182
S315080041209954FB685C22002199542323FB181B78B9
S315080041301800BD460AB080BDFFEFFFFF80B582B00C
S3150800414000AF78607B685D229B5CDBB21800BD46D9
S3150800415002B080BD80B588B000AFF860B9603B603A
S31508004160FB1D1A70FDF740FF0200BB6A9B1A3A68EE
S31508004170D318FB61FDF738FF0300BB613A4B1B6898
S315080041805B011B0DFA6953437B6158E03B680133B9
S3150800419055D0FDF729FF0200BB69D31AFA699A427E
S315080041A002D9FB69002B42D1FB681B685A68FB6879
S315080041B01B68E0218A435A60FB685A6882235B00C1
S315080041C09A4213D1FB689A6880231B029A4205D04B
S315080041D0FB689A688023DB009A4207D1FB681B6854
S315080041E01A68FB681B6840218A431A60FB689A6A4A
S315080041F080239B019A4210D1FB681B681A68FB68EA
S315080042001B681A490A401A60FB681B681A68FB682B
S315080042101B68802189010A431A60FB685D22012117
S315080042209954FB685C2200219954032317E07B69A3
S31508004230002B01D10023FB617B69013B7B61FB6895
S315080042401B689B68BA681340BA68D31A5A42534126
S31508004250DBB21A00FB1D1B789A4297D1002318007F
S31508004260BD4608B080BDC04644000020FFDFFFFF02
S3150800427080B58AB000AFF860B9607A603B601723F2
S31508004280FB1800221A70FDF7AFFE02003B6B9B1A63
S315080042903A68D3187B62FDF7A7FE03003B62FB680A
S315080042A01B680C33FB61414B1A6813009B009B1873
S315080042B0DA00D31A1B0D7A6A5343BB6168E0BA6801
S315080042C0C023DB009A420AD17B68002B07D1FB6921
S315080042D01B78DAB217217B181A707B181B783B6893
S315080042E0013355D0FDF780FE02003B6AD31A7A6A7D
S315080042F09A4202D97B6A002B42D1FB681B685A682E
S31508004300FB681B68E0218A435A60FB685A68822367
S315080043105B009A4213D1FB689A6880231B029A4273
S3150800432005D0FB689A688023DB009A4207D1FB68B0
S315080043301B681A68FB681B6840218A431A60FB6879
S315080043409A6A80239B019A4210D1FB681B681A68F7
S31508004350FB681B6816490A401A60FB681B681A68DE
S31508004360FB681B68802189010A431A60FB685D2285
S3150800437001219954FB685C2200219954032310E01B
S31508004380BB69002B01D100237B62BB69013BBB6182
S31508004390FB681B689B68BA6813407A689A428ED194
S315080043A000231800BD460AB080BDC0464400002060
S315080043B0FFDFFFFF80B586B002AFF860B9607A60AC
S315080043C0BA68C0235901F8687B6800931300002275
S315080043D0FFF74EFF031E07D0FB681B6E20221A4309
S315080043E0FB681A66032327E0BA68F8687B680093B7
S315080043F0130000228021FFF7ADFE031E07D0FB68DD
S315080044001B6E20221A43FB681A66032314E0BA6857
S31508004410C023D900F8687B68009313000022FFF7D1
S3150800442027FF031E07D0FB681B6E20221A43FB6872
S315080044301A66032300E000231800BD4604B080BDB9
S3150800444080B582B000AF78607B68002B01D101236C
S3150800445046E07B6888229B58002B07D17B6884221C
S31508004460002199547B681800FDF78CFC7B6888222C
S31508004470242199507B681B681A687B681B68012190
S315080044808A431A607B68180000F0CCF80300012BF9
S3150800449001D1012324E07B689B6A002B03D07B684B
S315080044A0180000F015FC7B681B685A687B681B6857
S315080044B00D490A405A607B681B689A687B681B68C6
S315080044C02A218A439A607B681B681A687B681B687E
S315080044D001210A431A607B68180000F0ADFC03004E
S315080044E01800BD4602B080BDFFB7FFFF80B58AB091
S315080044F002AFF860B9603B60BB1D1A80FB68882272
S315080045009B58202B00D088E0BB68002B03D0BB1D2E
S315080045101B88002B01D1012380E0FB689A68802361
S315080045205B019A4209D1FB681B69002B05D1BB6860
S315080045300122134001D0012370E0FB68902200217C
S315080045409950FB68882221219950FDF74DFD0300FB
S315080045507B61FB68BA1D542112885A52FB68BA1D42
S31508004560562112885A52FB689A6880235B019A4240
S3150800457008D1FB681B69002B04D10023FB61BB68CB
S31508004580BB6103E0BB68FB610023BB612CE07A6971
S31508004590F8683B68009313000022802100F09AFC1B
S315080045A0031E01D0032339E0FB69002B0BD1BB693D
S315080045B01B881A00FB681B68D205D20D9A62BB6974
S315080045C00233BB6107E0FB691A78FB681B689A62CD
S315080045D0FB690133FB61FB6856229B5A9BB2013B80
S315080045E099B2FB6856229952FB6856229B5A9BB28F
S315080045F0002BCCD17A69F8683B6800931300002237
S31508004600402100F067FC031E01D0032306E0FB6887
S31508004610882220219950002300E002231800BD4675
S3150800462008B080BDB0B590B000AF78621A232022DA
S315080046309B18DB1900221A707B6A9A687B6A1B69C9
S315080046401A437B6A5B691A437B6ADB691343FB631C
S315080046507B6A1B681B68C14A134019007B6A1A6883
S31508004660FB6B0B4313607B6A1B685B68BC4A134091
S3150800467018007B6AD9687B6A1A6803000B43536083
S315080046807B6A9B69FB637B6A1B68B64A934209D0BF
S315080046907B6A1B68B44A934204D07B6A1B6AFA6B2E
S315080046A01343FB637B6A1B689B68B04A1340190077
S315080046B07B6A1A68FB6B0B4393607B6A1B68DB6A31
S315080046C00F22934318007B6A596A7B6A1A680300AB
S315080046D00B43D3627B6A1B68A54A934231D1A54B2B
S315080046E05B6D03221340032B1DD023D8022B0CD05D
S315080046F020D8002B02D0012B0ED01BE01B23202232
S315080047009B18DB1900221A7054E11B2320229B18E0
S31508004710DB1902221A704DE11B2320229B18DB1994
S3150800472004221A7046E11B2320229B18DB19082253
S315080047301A703FE11B2320229B18DB1910221A70DE
S3150800474038E17B6A1B688C4A934231D1894B5B6D91
S315080047500C2213400C2B1DD023D8082B0CD020D8A4
S31508004760002B02D0042B0ED01BE01B2320229B1803
S31508004770DB1900221A701DE11B2320229B18DB1966
S3150800478002221A7016E11B2320229B18DB19042229
S315080047901A700FE11B2320229B18DB1908221A70B6
S315080047A008E11B2320229B18DB1910221A7001E14D
S315080047B07B6A1B68714A934231D16E4B5B6D30221E
S315080047C01340302B1DD023D8202B0CD020D8002BFB
S315080047D002D0102B0ED01BE01B2320229B18DB19BE
S315080047E000221A70E6E01B2320229B18DB190222FE
S315080047F01A70DFE01B2320229B18DB1904221A708B
S31508004800D8E01B2320229B18DB1908221A70D1E056
S315080048101B2320229B18DB1910221A70CAE07B6A18
S315080048201B68574A934206D11B2320229B18DB1983
S3150800483000221A70BEE07B6A1B68524A934206D170
S315080048401B2320229B18DB1900221A70B2E07B6A10
S315080048501B684D4A934206D11B2320229B18DB195D
S3150800486000221A70A6E07B6A1B683E4A93423ED134
S31508004870404B5A6DC0231B011340C02212019342BC
S3150800488027D0C022120193422AD8802212019342CD
S3150800489011D080221201934222D8002B04D0802204
S315080048A0D20093420ED01BE01B2320229B18DB1953
S315080048B000221A707EE01B2320229B18DB19022295
S315080048C01A7077E01B2320229B18DB1904221A7022
S315080048D070E01B2320229B18DB1908221A7069E056
S315080048E01B2320229B18DB1910221A7062E07B6AB0
S315080048F01B681D4A934257D11E4B5A6DC0239B0015
S315080049001340C0229200934240D0C02292009342A4
S3150800491043D880229200934211D08022920093427B
S315080049203BD8002B04D08022520093420ED034E0AC
S315080049301B2320229B18DB1900221A703AE01B233E
S3150800494020229B18DB1902221A7033E01B2320222F
S315080049509B18DB1904221A702CE0C046F369FFCFB6
S31508004960FFCFFFFF0080004000840040FFF4FF11E6
S315080049700038014000100240004400400048004052
S31508004980004C004000500040003C01401B23202200
S315080049909B18DB1908221A700CE01B2320229B188F
S315080049A0DB1910221A7005E01B2320229B18DB193D
S315080049B010221A707B6A1B68C14A934205D07B6A2B
S315080049C01B68C04A934200D093E01B2320229B1801
S315080049D0DB191B78082B15D018DC042B0DD015DC39
S315080049E0002B02D0022B05D010E0FEF7C3FE030011
S315080049F07B6314E0B44B7B6311E0FEF72FFE0300E4
S31508004A007B630CE080231B027B6308E000237B6347
S31508004A101A2320229B18DB1901221A70C0467B6BC9
S31508004A20002B00D135E17B6A5A6AA84B5200D35A4B
S31508004A301900786BFBF77AFB0300BB627B6A5A683E
S31508004A4013005B009B18BA6A9A4205D37B6A5B68B7
S31508004A501B03BA6A9A4206D91A2320229B18DB1925
S31508004A6001221A7044E07B6BBB610023FB617B6A01
S31508004A705A6A964B5200D35A3B6100237B613A69C6
S31508004A807B69B869F969FBF7C7FC02000B00110ED0
S31508004A901D020D4314027B6A5B685B08BB6000233A
S31508004AA0FB60B868F968001969417B6A5B683B6016
S31508004AB000237B603A687B68FBF7AEFC02000B00BC
S31508004AC013003B633A6BC0239B009A4209D33A6BA7
S31508004AD080235B039A4204D27B6A1B683A6BDA60CE
S31508004AE006E01A2320229B18DB1901221A70D0E04F
S31508004AF0CFE07B6ADA6980231B029A4200D070E015
S31508004B001B2320229B18DB191B78082B15D018DCD1
S31508004B10042B0DD015DC002B02D0022B05D010E09B
S31508004B20FEF728FE03007B6314E0674B7B6311E006
S31508004B30FEF794FD03007B630CE080231B027B6376
S31508004B4008E000237B631A2320229B18DB19012225
S31508004B501A70C0467B6B002B00D19AE07B6A5A6AB2
S31508004B605A4B5200D35A1900786BFBF7DFFA030049
S31508004B705A007B6A5B685B08D2187B6A5B68190017
S31508004B801000FBF7D3FA03003B633B6B0F2B21D9CD
S31508004B903A6B80235B029A421CD23B6B9AB20E2078
S31508004BA020240319DB190F218A431A803B6B5B0803
S31508004BB09BB20722134099B20319DB190219D219BD
S31508004BC012880A431A807B6A1B680219D21912884E
S31508004BD0DA605EE01A2320229B18DB1901221A707C
S31508004BE057E01B2320229B18DB191B78082B15D0AE
S31508004BF018DC042B0DD015DC002B02D0022B05D0B7
S31508004C0010E0FEF7B7FD03007B6314E02E4B7B63D1
S31508004C1011E0FEF723FD03007B630CE080231B02F3
S31508004C207B6308E000237B631A2320229B18DB1989
S31508004C3001221A70C0467B6B002B2AD07B6A5A6AFF
S31508004C40224B5200D35A1900786BFBF76FFA030010
S31508004C501A007B6A5B685B08D2187B6A5B68190076
S31508004C601000FBF763FA03003B633B6B0F2B0AD973
S31508004C703A6B80235B029A4205D23B6B9AB27B6AF7
S31508004C801B68DA6005E01A2320229B18DB1901222B
S31508004C901A707B6A6A22012199527B6A682201216D
S31508004CA099527B6A00225A677B6A00229A671A23FE
S31508004CB020229B18DB191B781800BD4610B0B0BD22
S31508004CC000800040008400400024F400E0780008DA
S31508004CD080B582B000AF78607B689B6A012213407A
S31508004CE00BD07B681B685B684A4A134019007B68CF
S31508004CF0DA6A7B681B680A435A607B689B6A0222E9
S31508004D0013400BD07B681B685B68434A1340190045
S31508004D107B681A6B7B681B680A435A607B689B6AC8
S31508004D20042213400BD07B681B685B683B4A134020
S31508004D3019007B685A6B7B681B680A435A607B6854
S31508004D409B6A082213400BD07B681B685B68344A51
S31508004D50134019007B689A6B7B681B680A435A6084
S31508004D607B689B6A102213400BD07B681B689B6884
S31508004D702C4A134019007B68DA6B7B681B680A4368
S31508004D809A607B689B6A202213400BD07B681B685D
S31508004D909B68254A134019007B681A6C7B681B6858
S31508004DA00A439A607B689B6A402213401DD07B6841
S31508004DB01B685B681D4A134019007B685A6C7B6840
S31508004DC01B680A435A607B685A6C80235B039A42C5
S31508004DD00BD17B681B685B68154A134019007B6812
S31508004DE09A6C7B681B680A435A607B689B6A8022B8
S31508004DF013400BD07B681B685B680E4A134019008A
S31508004E007B68DA6C7B681B680A435A60C046BD46F5
S31508004E1002B080BDFFFFFDFFFFFFFEFFFFFFFBFFA8
S31508004E20FF7FFFFFFFEFFFFFFFDFFFFFFFFFEFFF44
S31508004E30FFFF9FFFFFFFF7FF80B586B002AF7860E0
S31508004E407B68902200219950FDF7CEF80300FB609D
S31508004E507B681B681B6808221340082B0CD1FB686B
S31508004E608022910378681A4A0092002200F032F8EC
S31508004E70031E01D0032326E07B681B681B680422F7
S31508004E801340042B0CD1FB688022D1037868104AA2
S31508004E900092002200F01EF8031E01D0032312E040
S31508004EA07B688822202199507B688C222021995082
S31508004EB07B680022DA667B6800221A677B68842290
S31508004EC00021995400231800BD4604B080BDC04691
S31508004ED0FFFFFF0180B594B000AFF860B9603B6092
S31508004EE0FB1D1A70A7E0BB6D013300D1A3E0FDF7E7
S31508004EF07BF802003B68D31ABA6D9A4202D3BB6D9F
S31508004F00002B3FD1EFF31083BB62BB6A7B6401239E
S31508004F10FB62FB6A83F31088C046FB681B681A6845
S31508004F20FB681B684E490A401A607B6C3B633B6B07
S31508004F3083F31088C046EFF310837B637B6B3B6477
S31508004F400123BB63BB6B83F31088C046FB681B68F1
S31508004F509A68FB681B6801218A439A603B6CFB636D
S31508004F60FB6B83F31088C046FB6888222021995082
S31508004F70FB688C2220219950FB68842200219954D1
S31508004F80032369E0FB681B681B680422134052D0A0
S31508004F90FB681B68DA6980231B011A4080231B0102
S31508004FA09A4248D1FB681B68802212011A62EFF305
S31508004FB010833B613B69FB6401237B617B6983F357
S31508004FC01088C046FB681B681A68FB681B6824497A
S31508004FD00A401A60FB6CBB61BB6983F31088C04644
S31508004FE0EFF31083FB61FB69BB6401233B623B6AF9
S31508004FF083F31088C046FB681B689A68FB681B68C1
S3150800500001218A439A60BB6C7B627B6A83F31088B2
S31508005010C046FB68882220219950FB688C222021F3
S315080050209950FB68902220219950FB688422002120
S315080050309954032310E0FB681B68DB69BA681340C0
S31508005040BA68D31A5A425341DBB21A00FB1D1B78C1
S315080050509A4200D147E700231800BD4614B080BD28
S315080050605FFEFFFF80B584B000AF78607B6884225E
S315080050709B5C012B01D1022327E07B688422012156
S3150800508099547B688822242199507B681B681B6881
S31508005090FB607B681B681A687B681B6801218A436A
S315080050A01A60FB680B4A1340FB607B6800225A664D
S315080050B07B681B68FA681A607B68882220219950E9
S315080050C07B6884220021995400231800BD4604B049
S315080050D080BDC046FFFFFFDF80B584B000AF7860B3
S315080050E039607B6884229B5C012B01D102232EE068
S315080050F07B688422012199547B688822242199504F
S315080051007B681B681B68FB607B681B681A687B6882
S315080051101B6801218A431A607B681B689B68DB0051
S31508005120D9087B681B683A680A439A607B68180046
S3150800513000F054F87B681B68FA681A607B68882256
S31508005140202199507B688422002199540023180055
S31508005150BD4604B080BD000080B584B000AF78605D
S3150800516039607B6884229B5C012B01D102232FE0E6
S315080051707B688422012199547B68882224219950CE
S315080051807B681B681B68FB607B681B681A687B6802
S315080051901B6801218A431A607B681B689B680E4A54
S315080051A0134019007B681B683A680A439A607B6853
S315080051B0180000F013F87B681B68FA681A607B68A9
S315080051C08822202199507B68842200219954002343
S315080051D01800BD4604B080BDFFFFFFF1F0B585B0ED
S315080051E000AF78607B685B6E002B08D17B686A220B
S315080051F0012199527B6868220121995243E00F26C2
S31508005200BB1908221A700E203B1808221A707B68F0
S315080052101B689B685B0EDAB20D243B1907210A400E
S315080052201A707B681B689B685B0FDAB20C257B19C2
S3150800523007210A401A703B181B787A191278144904
S315080052408A5C5A4310007B191B78124AD35C1900F2
S31508005250FAF7F6FF030099B27B686A229952BB19DE
S315080052601B783A1912780A498A5C5A4310003B1986
S315080052701B78084AD35C1900FAF7E2FF030099B2D3
S315080052807B6868229952C046BD4605B0F0BDC04647
S31508005290F878000800790008F0B58DB000AF040072
S315080052A0080011003B60FB1D221C1A70BB1D021C66
S315080052B01A707B1D0A1C1A7014257B19FA1D1278A0
S315080052C01A707B19BA1D12785A707B197A1D1278D2
S315080052D09A700C26BB1907220021180001F082FAE1
S315080052E018243B1918220021180001F07BFA210026
S315080052F07B183F221A807B188A225A807B187A19D3
S315080053009A607B180322DA607B18BA191A617B182F
S3150800531007225A617B180021180000F083FD031E3E
S3150800532001DAFF231FE00C22BB181B78002B02D0E2
S31508005330BB181B7817E00C217B181B681B021B0C7B
S315080053409AB23B681A807B18DA781B791B021343DA
S315080053509AB2BB6C1A807B185B681B021B0C9AB24C
S31508005360FB6C1A8000231800BD460DB0F0BDF0B5E1
S3150800537095B000AF05000C0010001900FB1D2A1C93
S315080053801A703B1D221C1A80BB1C021C1A80BB1DEE
S315080053900A1C1A704F23FB1800221A70642308216E
S315080053A05B18DB191A786C235B18DB191B78D31882
S315080053B00E33282B01D94223F0E04F203B181B78E7
S315080053C008257A19F91D0978D15401007B181A782D
S315080053D07B1801321A703B1D1A883B1D1A800C0077
S315080053E07B181B787A19D318391D0222180001F088
S315080053F0F0F921007B187A18127802321A70BB1C51
S315080054001A88BB1C1A800C007B181B787A19D318CB
S31508005410B91C0222180001F0DCF93B193A19127876
S3150800542002321A703B191B787A19B91D0978D154BA
S315080054303B191A783B1901321A703B191A787919EF
S31508005440602308201B18DB191B788B543B191A7824
S315080054503B1901321A703B191B787A1964263118E0
S31508005460C9190978D1543B191A783B1901321A70AF
S315080054703B191B787A19D0180823F218D3191A7809
S315080054803B6F190001F0A5F93B19391908203218A4
S31508005490D219097812788A181A703B191B787A1962
S315080054A06C263118C9190978D1543B191A783B1951
S315080054B001321A703B191B787A19D0180823F2188A
S315080054C0D3191A78BB6F190001F083F920003B182D
S315080054D0391808243219D219097812788A181A70D4
S315080054E0742126008B19DB191A888B19DB191A8087
S315080054F004003B181B787A19D3188A19D119022285
